:020000040000FA
:060000000A128A110C280F
:10000800FE00030EF2000A08F3000A128A11DD2B23
:100018000A128A110F28F601F701F801F901831273
:100028000313D401D501D601D70183010A128A111D
:10003800B62A8312031335088039B6003608BF0084
:100048003508B6003607B7003708C600B41F2D2894
:100058002E282F2846144608031933283428442804
:10006800460A031D3828392841280030B5000030D9
:10007800B4000030B3000030B200B417B5014C280A
:100088000030B5000030B4000030B3000030B200DA
:1000980031088039B6003608BF063108B600360781
:1000A800B7003708C700B01F5A285B285C284714D8
:1000B80047080319602861287128470A031D652825
:1000C80066286E280030B1000030B0000030AF0064
:1000D8000030AE00B017B10179280030B10000300F
:1000E800B0000030AF000030AE00310830042F04FB
:1000F8002E04031D802881289A280030B50000307E
:10010800B4000030B3000030B2008030B4047F3057
:10011800B5043F08B6003608B5043508B100340800
:10012800B0003308AF003208AE00F9294608031DB5
:100138009E289F28A8280030B1000030B000003069
:10014800AF000030AE00F9294608B600B7013708FD
:10015800B90047083602B800031CB90338087F3EC7
:10016800C00039080318013E003EC1003508BE0032
:100178003408BD003308BC003208BB000030B500AD
:100188000030B4000030B3000030B2000030C500C9
:100198000030C4000030C3000030C200C7011E296F
:1001A80047080319D828D928F9280130B6000310C0
:1001B800BB0DBC0DBD0DBE0DB60BDB280130B60066
:1001C8000310B20DB30DB40DB50DB60BE428C51F61
:1001D800EE28EF28F02832140130B6000310C20DC3
:1001E800C30DC40DC50DB60BF22831083E02031D20
:1001F800072930083D02031D07292F083C02031D6B
:1002080007292E083B02031C0A290B291A2945171E
:100218002E08BB022F08031C2F0FBC023008031C3A
:10022800300FBD023108031C310FBE020130B60089
:100238003608C7071A304702031C23292429D42863
:100248003E083D043C043B0403192B292C294B2967
:1002580042144B290130B6000310B20DB30DB40D92
:10026800B50DB60B3029C51F3A293B293C29321454
:100278000130B6000310C20DC30DC40DC50DB60B79
:100288003E29FF30C0070318C10AFF30C107B41F59
:100298004E294F292E29C701C51F532954297029D2
:1002A800FF304205B600FF304305B700FF30440574
:1002B800B8007F304505B9003908380437043604DA
:1002C8000319672968296B29C701C70A7029321CD5
:1002D8006E296F2970296829470803197429752917
:1002E800A6290130B207003003180130B3070030E7
:1002F80003180130B407003003180130B507351C66
:1003080086298729A6293208B6003308B700340899
:10031800B8003508B9000130BA00390DB90CB80C6D
:10032800B70CB60CBA0B91293908B5003808B400D7
:100338003708B3003608B2000130C0070318C10AF5
:100348000030C1074108803AFF0080307F02031D5A
:10035800AF29FF304002031CB229B329C129FF305D
:1003680083120313C0000030C1000030B500003014
:10037800B4000030B3000030B20083120313410808
:10038800803AFF0080307F02031DCC2901304002F3
:100398000318CF29D029DD2983120313C001C10115
:1003A8000030B5000030B4000030B3000030B200B7
:1003B800BF01831203134008B6003608C600461C66
:1003C800E629E729E929B417ED297F30B600360870
:1003D800B4054608B6000310360CB7003708B50058
:1003E8003F08B6003608B5049128080083120313A5
:1003F800A80028080319012A022A162AA31F052A79
:10040800062A162A2009AA002109AB002209AC00F5
:100418002309AD00AA0A0319AB0A0319AC0A031988
:10042800AD0A1E2A2308AD002208AC002108AB0043
:100438002008AA002308220421042004031D252AD9
:10044800262A2F2A0030A3000030A2000030A10085
:100458000030A000B52A9630A4002408A900412A3B
:100468000130A4002408A90701300310AD0CAC0C1E
:10047800AB0CAA0CFF3E031D392AFE302D05031DC7
:10048800462A472A342A632A0130A4002408A907E7
:100498000130AA07003003180130AB0700300318F9
:1004A8000130AC07003003180130AD0701300310EC
:1004B800AD0CAC0CAB0CAA0CFF3E031D5B2AFF3045
:1004C8002D05031D682A692A482A752A0130A902C0
:1004D8000130A4000310AA0DAB0DAC0DAD0DA40B9B
:1004E8006E2AAC1B782A792A7F2A0230290203183F
:1004F8007E2A7F2A6A2A2918822A832A8B2AFF3091
:10050800AA05FF30AB057F30AC05FF30AD05031001
:10051800A90C2908A400A501A601A70118300310F9
:10052800A40DA50DA60DA70DFF3E031D932A2408B3
:10053800AA042508AB042608AC042708AD0428083B
:100548000319A72AA82AAD2AA31FAB2AAC2AAD2AC9
:10055800AD172D08A3002C08A2002B08A1002A081B
:10056800A00008000A128A1165240A128A111030A4
:1005780083160313860010308312031390001F3074
:1005880083120313D3007130D2001D30D100D10B78
:10059800CB2AD20BCB2AD30BCB2AD22A8312031312
:1005A8008F018E010614053083120313D100D10B7D
:1005B800DB2ADE2A831203130610061EE42AE52A24
:1005C800E12A1014061AE92AEA2AE62A10100F0866
:1005D800D5000E08D4005408A0005508A10000302A
:1005E800A11BFF30A200A30001300A128A11FA21D0
:1005F8000A128A11831203132308B5002208B400D3
:100608002108B3002008B2004230B1006B30B000BE
:100618004730AF00AE30AE000A128A111D200A1210
:100628008A11831203133108CB003008CA002F083F
:10063800C9002E08C8000A128A1161230A128A11F9
:10064800831203134908D5004808D4005408013E12
:10065800D40055080318013E003ED5005508803ADD
:10066800FF0080307F02031D3B2B02305402031C25
:100678003E2B3F2B4E2B831203135508803AFF0065
:1006880081307F02031D4A2B9130540203184D2BF1
:100698004E2B4E2B053083120313D3000F30D2009C
:1006A800F030D100D10B562BD20B562BD30B562B37
:1006B8000000D22A0A128A110C280310831203138D
:1006C8004A0D4B0DCC004C08F5007508031D6D2B29
:1006D8006E2B772B0030CB000030CA000030C900E9
:1006E8000030C800DC2B4808CC004908CD004A0877
:1006F800CE004B08CF001F300310CF0CCE0CCD0C12
:10070800CC0CFF3E031D802B4C08D0005008F40091
:10071800CA17FF30C805FF30C905FF30CA050030C9
:10072800CB059630F502F51F9A2B9B2BB52B750838
:10073800803A973E0318A12BA22BA32B6E2B0130D6
:100748000310CB0CCA0CC90CC80CFF3E031DA42B0C
:100758000130CC004C08F507031DB32BB42BA32B99
:10076800CC2B20307502031CBA2BBB2BC72B6E2B4E
:100778000130CC000310C80DC90DCA0DCB0DCC0B30
:10078800BE2B0130F5027508031DCB2BCC2BBC2BDF
:1007980074080319D02BD12BDC2BC809C909CA0945
:1007A800CB09C80A0319C90A0319CA0A0319CB0ACB
:1007B8000800831203138C1DE22BE32B442C141224
:1007C800141BE72BE82BEC2B941FEB2BEC2BF62BB5
:1007D8001308F000F1017008D6007108D70014134F
:1007E8009413141683160313941AFB2BFC2B1D2C3D
:1007F8001419FF2B002C1D2C831203131308F0006F
:10080800F1017008D6007108D7008C1114168316F0
:100818000313141C102C112C0B2C83120313130814
:10082800F0007008F600A630F000F00B192C00005C
:10083800412C941A202C212C412C141D242C252CBD
:10084800412C831203131308F000F1017008D6003D
:100858007108D70083160313141083120313540866
:1008680093001416A630F000F00B382C0000831605
:1008780003131418402C412C3B2C831203138C11A6
:1008880073088A00720E8300FE0E7E0E0900F400C3
:1008980074088316031393003630831203139400ED
:1008A80080308316031394000130910007168715D2
:1008B8008B170B17831203138C11831603138C15D4
:1008C800080083160317880189018316031386011C
:1008D8000F168F168F168312031386018801603056
:0C08E8000A128A114B240A128A1108001F
:04400E00D4E0FFFFFC
:00000001FF
