:020000040000FA
:060000000A128A110C280F
:10000800FE00030EF7000A08F8000A128A111928E0
:100018000A128A110F28F001F101F201F301F4012B
:10002800F50183010A128A117C28831203138C1D9F
:100038001E281F2875281412141B23282428282852
:10004800941F272828282F281308F6007608F5007B
:1000580014139413141683160313941A342835288A
:1000680051281419382839285128831203131308E2
:10007800F6007608F5008C11141683160313141C69
:100088004628472841288312031313088800A630FE
:10009800F600F60B4D2800007228941A54285528AB
:1000A8007228141D5828592872288312031313081C
:1000B800F6007608F5008316031314108312031351
:1000C800060893001416A630F600F60B69280000FF
:1000D800831603131418712872286C2883120313CB
:1000E8008C1178088A00770E8300FE0E7E0E0900B8
:1000F8000A128A11A7200A128A11831203139F1762
:100108001F13831603139F139F121F1283120313C7
:100118001F14C3309F053430FB00F130FA00FA0B8E
:100128009328FB0B93289828831203139F14A02865
:100138001E08FA007A08F3009F18A328A4289C2810
:100148000A128A110C28831603178801890183165D
:1001580003138601880105148514051583160317F2
:100168000814881408158312031386018801503077
:100178000A128A11C2200A128A110800F9007908A5
:1001880083160313930036308312031394008030D0
:1001980083160313940001309100871507168B17F7
:1001A8000B17831203138C11831603138C15080085
:04400E00D6E0FFFFFA
:00000001FF
