:020000040000FA
:060000000A128A110C280F
:10000800FE00030EF1000A08F2000A128A111728EE
:100018000A128A110F28F701F801F901FA01830180
:100028000A128A117D28831203138C1D1C281D288F
:1000380076281412F801F80A0614141B2428252817
:100048002928941F2828292830281308F000700828
:10005800FA0014139413141683160313941A3528EC
:1000680036285228141939283A285228831203139B
:100078001308F0007008FA008C1114168316031385
:10008800141C4728482842288312031313088800A1
:10009800A630F000F00B4E2800007328941A55285B
:1000A80056287328141D59285A28732883120313B5
:1000B8001308F0007008FA00831603131410831253
:1000C80003131E0893001416A630F000F00B6A28DC
:1000D8000000831603131418722873286D288312DE
:1000E80003138C1172088A00710E8300FE0E7E0EB7
:1000F80009000A128A11BC200A128A117803031D0A
:100108008628872896288312031306140330F600DE
:100118000830F5007730F400F40B9028F50B9028A0
:10012800F60B9028831203130610F8011E08F4003A
:100138007408F70082280A128A110C28F300730841
:100148008316031393003630831203139400803010
:1001580083160313940001309100071687158B1737
:100168000B17831203138C11831603138C150800C5
:1001780083160317880189018316031386018801F2
:100188008312031386018801861490300A128A119B
:08019800A2200A128A110800DE
:04400E00D4E0FFFFFC
:00000001FF
