:020000040000FA
:060000000A128A110C280F
:10000800FE00030EF1000A08F2000A128A111628EF
:100018000A128A110F28FA01FB01FC0183010A1256
:100028008A117B28831203138C1D1B281C28742813
:100038001412FA01FA0A141B222823282728941FCD
:10004800262827282E281308F0007008FC0014130F
:100058009413141683160313941A3328342850283B
:100068001419372838285028831203131308F0006E
:100078007008FC008C11141683160313141C4528F1
:10008800462840288312031313088800A630F0007E
:10009800F00B4C2800007128941A53285428712812
:1000A800141D572858287128831203131308F000C9
:1000B8007008FC008316031314107C0883120313C2
:1000C80093001416A630F000F00B68280000831681
:1000D80003131418702871286B28831203138C11CA
:1000E80072088A00710E8300FE0E7E0E09000A1245
:1000F8008A1148210A128A118316031386010A12EB
:100108008A1105210A128A111530F9004B30F800BE
:10011800BE30F700F70B8E28F80B8E28F90B8E28C7
:1001280000000A128A11B1200A128A111530F9004A
:100138004B30F800BE30F700F70BA028F80BA028CA
:10014800F90BA02800000A128A11DB200A128A1172
:10015800FA0183280A128A110C28F501F601831284
:10016800031306140430F400E430F300F30BBA2848
:10017800F40BBA2800008312031306103130F40080
:100188000B30F300F30BC628F40BC628CB2801303C
:10019800F5070318F60A0030F60700307602323009
:1001A80003197502031CD928DA28B3280800F501B9
:1001B800F6018312031306140630F400B530F30079
:1001C800F30BE428F40BE428E92883120313061040
:1001D8002F30F4003A30F300F30BF028F40BF0283A
:1001E80000000130F5070318F60A0030F607003062
:1001F8007602323003197502031C03290429DD280D
:100208000800F501F601831203130614E430F30025
:100218000D290E29F30B0C29112900008312031351
:1002280006103230F400DD30F300F30B1929F40B1B
:1002380019291E290130F5070318F60A0030F607B8
:1002480000307602323003197502031C2C292D293F
:1002580007290800F3007308831603139300363048
:100268008312031394008030831603139400013023
:100278009100071687158B170B17831203138C1120
:10028800831603138C150800831603138801831241
:1002980003138801861440300A128A112E210A128B
:0402A8008A110800AF
:02400E00D4E0FC
:00000001FF
