:020000040000FA
:060000000A128A11C62F4E
:100008000A168A11B7230A128A1170088312031379
:10001800930008001A30F300F830F200F20B1228AF
:10002800F30B1228000030300A168A11E8230A124E
:100038008A110D30F300FB30F200F20B2128F30B8C
:100048002128262830300A168A11E8230A128A1134
:100058002430F200F20B2E28000030300A168A11E4
:10006800E8230A128A110F30F3004730F200F20B2E
:100078003B28F30B3B28402838300A168A11E8231E
:100088000A128A110630F3003030F200F20B4A28C7
:10009800F30B4A28000008300A168A11E8230A12CE
:1000A8008A110630F3003030F200F20B5928F30BB6
:1000B8005928000001300A168A11E8230A128A1109
:1000C8000630F3003030F200F20B6828F30B682892
:1000D800000006300A168A11E8230A128A1106302F
:1000E800F3003030F200F20B7728F30B772800008A
:1000F8000C300A168A11E8230A128A110630F30016
:100108003030F200F20B8628F30B86280000080036
:100118000A168A11FC230A128A118316031318126D
:1001280018158316031787151930831603139900BA
:100138009A018312031398171813181683160313BA
:100148009816061086108801831203138601880109
:10015800831603178901880183160313861306176C
:100168000A128A110E200A128A110A168A11AA2363
:100178000A128A11023083120313DB004530DA00B9
:10018800A930D900D90BC628DA0BC628DB0BC6283C
:10019800DF3083120313D900590883160313C100F3
:1001A8000A168A1111250A128A1183120313E00113
:1001B800E101061CE028E12802298230831203139A
:1001C800DA00DD30D900D90BE728DA0BE7288312EB
:1001D8000313061CF028F12802290130E20703184E
:1001E800E30A0030E30700306302073003196202B4
:1001F800031CFF2800290229E201E30162086304C5
:100208000319072908294E2B861C0B290C2920299C
:10021800823083120313DA00DD30D900D90B12299A
:10022800DA0B122983120313861C1B291C29202987
:100238000130E0000030E100061D23292429382977
:10024800823083120313DA00DD30D900D90B2A2952
:10025800DA0B2A2983120313061D33293429382976
:10026800FF30E000FF30E1006208630403193D2914
:100278003E294E2B600861040319432944294E2B5B
:10028800352B6B08F7006A08F6000A168A115526FE
:100298000A128A11770883120313EB007608EA0022
:1002A80060086A07EA0061080318610A6B07EB0037
:1002B8006B08A9006A08A8000A128A1517200A12F2
:1002C8008A11831203132908EB002808EA001F305B
:1002D8006A05D90000306B05DA005A08803AFF0039
:1002E80080307F02031D7A2913305902031C7D29AF
:1002F8007E298D29E130831203136A05EA00003054
:100308006B05EB0020306A06EA0000306B06EB0054
:10031800B0291F30831203136A05D90000306B051A
:10032800DA005A08803AFF0080307F02031D9E29B8
:10033800013059020318A129A229B02912308312C9
:1003480003136A04EA0000306B04EB0020306A06ED
:10035800EA0000306B06EB000230F2000030F300D8
:10036800831203136B08F5006A08F4000A168A1151
:1003780069240A128A114E2B6D08F7006C08F600E2
:100388000A168A1155260A128A117708831203134E
:10039800ED007608EC0060086C07EC0061080318B3
:1003A800610A6D07ED006D08803AFF0080307F021A
:1003B800031DE0293C306C02031CE329E429E829E9
:1003C80083120313EC01ED0183120313ED1FED29D2
:1003D800EE29F2293B30EC000030ED006D08A90051
:1003E8006C08A8000A128A1517200A128A118312AB
:1003F80003132908ED002808EC000130F200003052
:10040800F3006D08F5006C08F4000A168A116924D7
:100418000A128A114E2B6108F1006008F0000A16D2
:100428008A11C4230A128A117008710403191D2A3B
:100438001E2A4E2B0030F200F3000030F400F500C5
:100448000A168A1169240A128A114E2B6908F700C4
:100458006808F6000A168A1155260A128A117708C2
:1004680083120313E9007608E80060086807E800CB
:1004780061080318610A6907E9006908A9006808A2
:10048800A8000A128A1517200A128A118312031368
:100498002908E9002808E8006908803AFF00803048
:1004A8007F02031D592A32306802031C5C2A5D2A28
:1004B800632A013083120313E8000030E900831235
:1004C80003136908803AFF0080307F02031D6E2AFB
:1004D800013068020318712A722A782A313083128F
:1004E8000313E8000030E9000430F2000030F300A4
:1004F800831203136908F5006808F4000A168A11C4
:1005080069240A128A114E2B6708F7006608F6005C
:100518000A168A1155260A128A11770883120313BC
:10052800E7007608E60060086607E6006108031839
:10053800610A6707E7006708A9006608A8000A12A9
:100548008A1517200A128A11831203132908E70053
:100558002808E6006708803AFF0080307F02031D04
:10056800B72A13306602031CBA2ABB2AC12A0130F3
:1005780083120313E6000030E700831203136708B1
:10058800803AFF0080307F02031DCC2A01306602CA
:100598000318CF2AD02AD62A123083120313E60072
:1005A8000030E7000530F2000030F3008312031337
:1005B8006708F5006608F4000A168A1169240A1209
:1005C8008A114E2B6508F7006408F6000A168A118E
:1005D80055260A128A11770883120313E500760854
:1005E800E40060086407E40061080318610A65070D
:1005F800E5006508A9006408A8000A128A151720F2
:100608000A128A11831203132908E5002808E40056
:10061800E51F0F2B102B142B9930E4000030E50058
:100628006508803AFF0080307F02031D1D2B503083
:100638006402031C202B212B252B83120313E401B6
:10064800E5010630F2000030F30083120313650859
:10065800F5006408F4000A168A1169240A128A113E
:100668004E2B6308003A03193A2B4E2B6208013AC5
:1006780003194529033A0319C029013A03190F2A16
:10068800073A03192A2A013A0319882A033A03194F
:10069800E62A4E2B0030F600F7000A168A111A26B1
:1006A8000A128A11770883160313E7007608E60012
:1006B8000130F6000030F7000A168A111A260A12CD
:1006C8008A11770883120313ED007608EC000230D4
:1006D800F6000030F7000A168A111A260A128A1143
:1006E800770883120313EB007608EA001F306A05C7
:1006F80083160313E4000030831203136B0583167B
:100708000313E5002030831203136A0583160313CD
:10071800E0000030831203136B0583160313E10016
:100728000330F6000030F7000A168A111A260A125A
:100738008A11770883120313E9007608E800043069
:10074800F6000030F7000A168A111A260A128A11D2
:10075800770883120313E9007608E8000530F600ED
:100768000030F7000A168A111A260A128A11770829
:1007780083120313E7007608E6000630F60000301F
:10078800F7000A168A111A260A128A1177088312A4
:100798000313E5007608E4008316031364080A16B9
:1007A8008A119E230A128A1183120313D900590849
:1007B80083160313AF0064080A168A1167230A1206
:1007C8008A1183120313D900590883160313B00042
:1007D800831203136C080A168A119E230A128A11BF
:1007E80083120313D900590883160313B200831226
:1007F80003136C080A168A1167230A128A118312D6
:100808000313D900590883160313B30066080A16A0
:100818008A119E230A128A1183120313D9005908D8
:1008280083160313B50066080A168A1167230A128D
:100838008A1183120313D900590883160313B600CB
:100848008312031368080A168A119E230A128A1152
:1008580083120313D900590883160317A4008312BF
:10086800031368080A168A1167230A128A11831269
:100878000313D900590883160317A500831203131D
:1008880066080A168A119E230A128A118312031314
:10089800D900590883160317A700831203136608A3
:1008A8000A168A1167230A128A1183120313D900C0
:1008B800590883160317A8008312031364080A163D
:1008C8008A119E230A128A1183120313D900590828
:1008D80083160317AA008312031364080A168A11E1
:1008E80067230A128A1183120313D9005908831641
:1008F8000317AB0083160313600861040319852CE2
:10090800862C972C503083120313D900590883166C
:100918000313B8004D3083120313D9005908831606
:100928000313B900A72C413083120313D9005908C7
:1009380083160313B8004D3083120313D9005908E6
:1009480083160313B900063083120313D90059081C
:10095800F20002300A168A11B6240A128A11AF3040
:10096800F3000030F4000A168A1171250A128A1160
:1009780083160313210883120313D90004300310CC
:10098800D90CFF3E031DC32C64305902031CCD2C27
:10099800CE2CD52C3130D900590883160313A0006A
:1009A800DB2C2030D900590883160313A0000A3025
:1009B80083120313A4000030A5000A30F6000030AB
:1009C800F70083160313210883120313D900DA01F1
:1009D8005908F8005A08F9000A168A1197270A12C6
:1009E8008A11770883120313A7007608A6000A164F
:1009F8008A11D6260A128A11831203132408303E5C
:100A0800DB005B0883160313BC000A308312031350
:100A1800A4000030A50083160313210883120313D2
:100A2800D900DA015908A6005A08A7000A168A113F
:100A3800D6260A128A11831203132408303EDB00DB
:100A48005B0883160313BD00E830F6000330F70097
:100A580021080F3983120313D900DA015908F0006D
:100A68005A08F1007130F2000230F3000A168A11B8
:100A78001E240A128A117108F9007008F8000A1673
:100A88008A1197270A128A117608303E83120313B7
:100A9800DB005B0883160313BF000A3083120313BD
:100AA800A4000030A5006430F6000030F70083167B
:100AB800031321080F3983120313D900DA015908E7
:100AC800F0005A08F1007130F2000230F3000A1603
:100AD8008A111E240A128A117108F9007008F80098
:100AE8000A168A1197270A128A11770883120313A4
:100AF800A7007608A6000A168A11D6260A128A11B5
:100B0800831203132408303EDB005B0883160313AB
:100B1800C0008312031388150A168A1183230A1248
:100B28008A115130F0000030F1000A128A110420B5
:100B38000A128A110030F000F1000A168A11E32423
:100B48000A128A11710883120313DF007008DE008D
:100B58000A168A118C230A128A11831203135E085B
:100B6800303ED900590883160313CF00033083128F
:100B78000313D9005908F20002300A168A11B62464
:100B88000A128A11CF30F3000030F4000A168A11D5
:100B980071250A128A11F201F20A02300A168A1124
:100BA800B6240A128A11831203135E080A128A15E0
:100BB8006C210A128A110A168A1183230A128A11D1
:100BC8006130F0000030F1000A128A1104200A1284
:100BD8008A110030F000F1000A168A11E3240A1283
:100BE8008A11710883120313DD007008DC000A16ED
:100BF8008A118C230A128A110A3083120313A40063
:100C08000030A5000A30F6000030F7005D08F90052
:100C18005C08F8000A168A1197270A128A117708C1
:100C280083120313A7007608A6000A168A11D6268F
:100C38000A128A11831203132408303ED900590876
:100C480083160313CB000A3083120313A400003069
:100C5800A5005D08A7005C08A6000A168A11D6261A
:100C68000A128A11831203132408303ED900590846
:100C780083160313CC000A3083120313D9005908D2
:100C8800F20001300A168A11B6240A128A11CB30F2
:100C9800F3000030F4000A168A1171250A128A112D
:100CA8000A168A1183230A128A117130F000003063
:100CB800F1000A128A1104200A128A110030F00089
:100CC800F1000A168A11E3240A128A1170088312A5
:100CD8000313D900590883160313A1000A168A11B1
:100CE8008C230A128A11F201F20A01300A168A11BB
:100CF800B6240A128A11BB30F3000030F4000A1639
:100D08008A1171250A128A110A168A1183230A1276
:100D18008A118130F0000030F1000A128A11042093
:100D28000A128A110030F000F1000A168A11E32431
:100D38000A128A11700883120313D90059088316FE
:100D48000313AE000A168A118C230A128A110A307C
:100D580083120313A4000030A500831603132E0882
:100D680083120313D900DA015908A6005A08A7000C
:100D78000A168A11D6260A128A1183120313240826
:100D8800303EDB005B0883160313C7000A3083126A
:100D98000313A4000030A5000A30F6000030F70065
:100DA800831603132E0883120313D900DA01590896
:100DB800F8005A08F9000A168A1197270A128A11A8
:100DC800770883120313A7007608A6000A168A116B
:100DD800D6260A128A11831203132408303EDB0038
:100DE8005B0883160313C6000A3083120313A4009A
:100DF8000030A5006430F6000030F70083160313B6
:100E08002E0883120313D900DA015908F8005A088A
:100E1800F9000A168A1197270A128A11770883128D
:100E28000313A7007608A6000A168A11D6260A1206
:100E38008A11831203132408303EDB005B088316F3
:100E48000313C5000D3083120313D9005908F200AB
:100E580001300A168A11B6240A128A11C530F30025
:100E68000030F4000A168A1171250A128A113330EB
:100E7800831603133C06031D422F432F6A2F363077
:100E88003D06031D482F492F6A2F0A168A1183230E
:100E98000A128A119130F0000030F1000A128A110A
:100EA80004200A128A110030F000F1000A168A1193
:100EB800E3240A128A11710883160313DB007008F1
:100EC800DA000A168A118C230A128A113230831624
:100ED80003134B02031C712F722F782F38304F02E7
:100EE800031C772F782F992F0A168A1183230A1249
:100EF8008A113130F0000030F1000A128A11042002
:100F08000A128A110030F000F1000A168A11E3244F
:100F18000A128A11710883160313DB007008DA00BD
:100F28000A168A118C230A128A1138308316031381
:100F38004602031CA02FA12FD4280A168A11832346
:100F48000A128A114130F0000030F1000A128A11A9
:100F580004200A128A110030F000F1000A168A11E2
:100F6800E3240A128A11710883160313D900700842
:100F7800D8000A168A118C230A128A11D4280A1258
:100F88008A1100288317AD30FD001330FE0095301C
:100F9800FF00A43084000A168A11D9230A128A1184
:100FA8008313D230FD001530FE003F30FF00A03023
:100FB80084000A168A11D9230A128A1183179030DD
:100FC8008400A4300A168A1172230A128A11831324
:100FD800D2308400F0300A168A1172230A128A115C
:100FE8005C30840070300A168A1172230A128A1142
:080FF80083010A128A118C2802
:10100400F20083120313081472080A168A116C235F
:101014000A128A158312031308150D30F100F10B1F
:10102400112883120313081108000A3083120313D2
:10103400A4000030A5002908A7002808A6000A1665
:101044008A11D6260A128A15831203132508AD00C5
:101054002408AC000F302C05AC0000302D05AD0089
:101064000A30F6000030F7002908F9002808F800D3
:101074000A168A1197270A128A157708831203130E
:10108400A9007608A8000A30A4000030A5002908A9
:10109400A7002808A6000A168A11D6260A128A155D
:1010A400831203132508AF002408AE000F302E0569
:1010B400AE0000302F05AF002F08AB002E08AA00A9
:1010C400AA0EAB0EF030AB052A080F39AB04F03092
:1010D400AA052A08AE002B08AF00F0302E05AE009A
:1010E40000302F05AF002E082C04AC002F082D046F
:1010F400AD002D08A9002C08A800080083120313D2
:10110400A3007908A1007808A0007B08F1007A0800
:10111400F0002108F3002008F2000A168A11922632
:101124000A128A15710883120313A1007008A00023
:101134000130FC007C08A30720082104031DA32818
:10114400A428872823088400831780010130A30280
:101154007B08F1007A08F0007908F3007808F200BF
:101164000A168A11E0250A128A157008FC007C0808
:1011740083120313A2007B08F1007A08F0007908B7
:10118400F3007808F2000A168A1192260A128A15C8
:101194007108F9007008F8000A3083120313220260
:1011A400031CD528D628DA280730FC007C08A207BF
:1011B4003030FC007C08A2072208FC0023088400CD
:1011C4007C08831780000130A30278087904031D8A
:1011D400EC28ED28AA280130FC007C08A3070800AD
:1011E4000310720D730DF4007408FA007A08031DDD
:1011F400FC28FD2806290030F3000030F2000030FE
:10120400F1000030F0006B297008F4007108F5005B
:101214007208F6007308F7001F300310F70CF60C81
:10122400F50CF40CFF3E031D0F297408F800780830
:10123400F900F217FF30F005FF30F105FF30F20539
:101244000030F3059630FA02FA1F29292A29442985
:101254007A08803A973E0318302931293229FD282B
:1012640001300310F30CF20CF10CF00CFF3E031DE3
:1012740033290130F4007408FA07031D4229432975
:1012840032295B2920307A02031C49294A2956292C
:10129400FD280130F4000310F00DF10DF20DF30DF3
:1012A400F40B4D290130FA027A08031D5A295B29EF
:1012B4004B29790803195F2960296B29F009F10981
:1012C400F209F309F00A0319F10A0319F20A0319DE
:1012D400F30A080083120313D800C73083120313E0
:1012E400D4007429D40B7329772983120313580863
:1012F400D4005408EE004330BD007F30BC00003001
:10130400BB000030BA004030A300A030A20000307F
:10131400A1000030A0006E08D400D501D601D70189
:101324005708F3005608F2005508F1005408F0007D
:1013340001300A128A1508220A128A1573088312C8
:101344000313A7007208A6007108A5007008A40082
:101354000A128A159F240A128A158312031323087A
:10136400C1002208C0002108BF002008BE000A12E4
:101374008A15C2220A128A15831203133D088316A2
:101384000313D500831203133C0883160313D400FC
:10139400831203133B0883160313D300831203132E
:1013A4003A0883160313D2005508F3005408F200D8
:1013B4005308F1005208F0000A128A15F2200A12AA
:1013C4008A15710883120313A5007008A4000A305B
:1013D400A6000030A7009A300A168A1143240A1284
:1013E4008A159A30F3000130F4000A168A11712527
:1013F4000A128A15073083120313D5007C30D400F7
:10140400D40B022AD50B022A00000800F800780841
:1014140003190D2A0E2A222AF31F112A122A222A1C
:101424007009FA007109FB007209FC007309FD00E0
:10143400FA0A0319FB0A0319FC0A0319FD0A2A2AEA
:101444007308FD007208FC007108FB007008FA00C4
:101454007308720471047004031D312A322A3B2A72
:101464000030F3000030F2000030F1000030F000F2
:10147400C12A9630F4007408F9004D2A0130F400B2
:101484007408F90701300310FD0CFC0CFB0CFA0C7A
:10149400FF3E031D452AFE307D05031D522A532AB3
:1014A400402A6F2A0130F4007408F9070130FA0762
:1014B400003003180130FB07003003180130FC072B
:1014C400003003180130FD0701300310FD0CFC0C43
:1014D400FB0CFA0CFF3E031D672AFF307D05031D3C
:1014E400742A752A542A812A0130F9020130F40041
:1014F4000310FA0DFB0DFC0DFD0DF40B7A2AFC1BF9
:10150400842A852A8B2A0230790203188A2A8B2A94
:10151400762A79188E2A8F2A972AFF30FA05FF3007
:10152400FB057F30FC05FF30FD050310F90C79083D
:10153400F400F501F601F70118300310F40DF50D70
:10154400F60DF70DFF3E031D9F2A7408FA04750873
:10155400FB047608FC047708FD0478080319B32A11
:10156400B42AB92AF31FB72AB82AB92AFD177D0865
:10157400F3007C08F2007B08F1007A08F000080010
:101584008312031341088039C2004208CB0041088A
:10159400C2004207C3004308D200C01FD22AD32A84
:1015A400D42A521452080319D82AD92AE92A520AE9
:1015B400031DDD2ADE2AE62A0030C1000030C00007
:1015C4000030BF000030BE00C017C101F12A003056
:1015D400C1000030C0000030BF000030BE003D0834
:1015E4008039C2004208CB063D08C2004207C3004E
:1015F4004308D300BC1FFF2A002B012B53145308AC
:101604000319052B062B162B530A031D0A2B0B2B30
:10161400132B0030BD000030BC000030BB00003094
:10162400BA00BC17BD011E2B0030BD000030BC0049
:101634000030BB000030BA003D083C043B043A04CF
:10164400031D252B262B3F2B0030C1000030C0008A
:101654000030BF000030BE008030C0047F30C104C1
:101664004B08C2004208C1044108BD004008BC0048
:101674003F08BB003E08BA009E2C5208031D432BB2
:10168400442B4D2B0030BD000030BC000030BB00AB
:101694000030BA009E2C5208C200C3014308C500A2
:1016A40053084202C400031CC50344087F3ECC0017
:1016B40045080318013E003ECD004108CA00400819
:1016C400C9003F08C8003E08C7000030C100003010
:1016D400C0000030BF000030BE000030D100003038
:1016E400D0000030CF000030CE00D301C32B53080C
:1016F40003197D2B7E2B9E2B0130C2000310C70DD6
:10170400C80DC90DCA0DC20B802B0130C2000310D5
:10171400BE0DBF0DC00DC10DC20B892BD11F932B64
:10172400942B952B3E140130C2000310CE0DCF0D27
:10173400D00DD10DC20B972B3D084A02031DAC2BD3
:101744003C084902031DAC2B3B084802031DAC2B8B
:101754003A084702031CAF2BB02BBF2B51173A0892
:10176400C7023B08031C3B0FC8023C08031C3C0F88
:10177400C9023D08031C3D0FCA020130C2004208E1
:10178400D3071A305302031CC82BC92B792B4A08E0
:101794004904480447040319D02BD12BF02B4E14D1
:1017A400F02B0130C2000310BE0DBF0DC00DC10DE2
:1017B400C20BD52BD11FDF2BE02BE12B3E140130C4
:1017C400C2000310CE0DCF0DD00DD10DC20BE32BF3
:1017D400FF30CC070318CD0AFF30CD07C01FF32B11
:1017E400F42BD32BD301D11FF82BF92B152CFF305D
:1017F4004E05C200FF304F05C300FF305005C40042
:101804007F305105C50045084404430442040319CC
:101814000C2C0D2C102CD301D30A152C3E1C132C8C
:10182400142C152C0D2C53080319192C1A2C4B2C81
:101834000130BE07003003180130BF070030031821
:101844000130C007003003180130C107411C2B2CA4
:101854002C2C4B2C3E08C2003F08C3004008C40097
:101864004108C5000130C600450DC50CC40CC30CAD
:10187400C20CC60B362C4508C1004408C0004308FE
:10188400BF004208BE000130CC070318CD0A003067
:10189400CD074D08803AFF0080307F02031D542C91
:1018A400FF304C02031C572C582C662CFF3083123B
:1018B4000313CC000030CD000030C1000030C00064
:1018C4000030BF000030BE00831203134D08803A7D
:1018D400FF0080307F02031D712C01304C0203187D
:1018E400742C752C822C83120313CC01CD0100308F
:1018F400C1000030C0000030BF000030BE00CB018A
:10190400831203134C08C2004208D200521C8B2CD1
:101914008C2C8E2CC017922C7F30C2004208C0053C
:101924005208C2000310420CC3004308C1004B0814
:10193400C2004208C104362B080083120313230893
:101944008039A8002808AD002308A8002807A900AA
:101954002908B300A21FAF2CB02CB12C33143308C8
:101964000319B52CB62CC52C330A031DBA2CBB2C79
:10197400C32C0030A3000030A2000030A1000030CE
:10198400A000A217CD2C0030A3000030A20000302C
:10199400A1000030A00027088039A8002808AD065F
:1019A4002708A8002807A9002908B200A61FDB2CD5
:1019B400DC2CDD2C321432080319E12CE22CF12C3E
:1019C400320A031DE62CE72CEF2C0030A700003070
:1019D400A6000030A5000030A400A617F92C0030A2
:1019E400A7000030A6000030A5000030A400320893
:1019F4000319FD2CFE2C032D3308031D022D032D8A
:101A04000C2D0030A3000030A2000030A1000030F3
:101A1400A000FF2F2008A8002808F00026080A16B6
:101A24008A118F240A128A15710883120313B900CC
:101A34007008B8003808A800A901AA01AB012B0856
:101A4400B1002A08B0002908AF002808AE00390800
:101A5400A800A901AA01AB012B08B7002A08B60007
:101A64002908B5002808B4002108A8002808F000B7
:101A740025080A168A118F240A128A1571088312FE
:101A84000313B9007008B8003808A800A901AA0116
:101A9400AB012808AE07290803110318013E0319F6
:101AA400542DAF072A0803110318013E03195B2DB7
:101AB400B0072B0803110318013E0319622DB10767
:101AC4003908A800A901AA01AB012808B40729080C
:101AD40003110318013E0319702DB5072A080311D9
:101AE4000318013E0319772DB6072B0803110318B9
:101AF400013E03197E2DB7072208A8002808F0002C
:101B040024080A168A118F240A128A15710883126E
:101B14000313B9007008B8003808A800A901AA0185
:101B2400AB012808AE07290803110318013E031965
:101B34009C2DAF072A0803110318013E0319A32D96
:101B4400B0072B0803110318013E0319AA2DB1078E
:101B54003908A800A901AA01AB012808B40729087B
:101B640003110318013E0319B82DB5072A08031100
:101B74000318013E0319BF2DB6072B0803110318E0
:101B8400013E0319C62DB7070830A8000310AE0D97
:101B9400AF0DB00DB10DA80BC82D2108A800280861
:101BA400F00024080A168A118F240A128A15710873
:101BB40083120313B9007008B8003808A800390864
:101BC400A900AA01AB012808AE07290803110318CC
:101BD400013E0319EE2DAF072A0803110318013E35
:101BE4000319F52DB0072B0803110318013E03193F
:101BF400FC2DB1072008A8002808F00025080A16C3
:101C04008A118F240A128A15710883120313B900EA
:101C14007008B8003808A8003908A900AA01AB0167
:101C24002808AE07290803110318013E03191B2EC7
:101C3400AF072A0803110318013E0319222EB00727
:101C44002B0803110318013E0319292EB10708308C
:101C5400A8000310AE0DAF0DB00DB10DA80B2B2EC7
:101C64002008A8002808F00024080A168A118F24E6
:101C74000A128A15710883120313B9007008B80098
:101C84003808A8003908A900AA01AB012808AE0742
:101C9400290803110318013E0319512EAF072A081E
:101CA40003110318013E0319582EB0072B08031122
:101CB4000318013E03195F2EB1072108A800280864
:101CC400F00026080A168A118F240A128A15710850
:101CD40083120313B9007008B8003808A800390843
:101CE400A900AA01AB012808B407290803110318A5
:101CF400013E03197E2EB5072A0803110318013E7D
:101D04000319852EB6072B0803110318013E031986
:101D14008C2EB7072208A8002808F00025080A1608
:101D24008A118F240A128A15710883120313B900C9
:101D34007008B8003808A8003908A900AA01AB0146
:101D44002808B407290803110318013E0319AB2E10
:101D5400B5072A0803110318013E0319B22EB6076A
:101D64002B0803110318013E0319B92EB7072208E3
:101D7400A8002808F00026080A168A118F240A12DF
:101D84008A15710883120313B9007008B800380863
:101D9400A8003908A900AA01AB0108300310A80D56
:101DA400A90DAA0DAB0DFF3E031DD02E2808B407C4
:101DB400290803110318013E0319E12EB5072A0867
:101DC40003110318013E0319E82EB6072B0803116B
:101DD4000318013E0319EF2EB7072E08A8002F0899
:101DE400A9003008AA003108AB0018300310AB0C6E
:101DF400AA0CA90CA80CFF3E031DF82E2808B40752
:101E0400290803110318013E0319092FB5072A08ED
:101E140003110318013E0319102FB6072B080311F1
:101E24000318013E0319172FB7070830A800031041
:101E3400AE0DAF0DB00DB10DA80B192F330832073D
:101E4400A800A901A90D2808823EB8002908031892
:101E5400013EFF3EB9004B2F0130A8000310B40D22
:101E6400B50DB60DB70DA80B302FB11F3A2F3B2F70
:101E74003C2F34140130A8000310AE0DAF0DB00D8B
:101E8400B10DA80B3E2FFF30B8070318B90AFF3075
:101E9400B907B61F4E2F4F2F2E2FB201B11F532F4C
:101EA400542F702FFF302E05A800FF302F05A900F6
:101EB400FF303005AA007F303105AB002B082A041F
:101EC400290428040319672F682F6B2FB201B20A63
:101ED400702F341C6E2F6F2F702F682F3208031948
:101EE400742F752FA62F0130B4070030031801306A
:101EF400B507003003180130B6070030031801306D
:101F0400B707371C862F872FA62F3408A80035085B
:101F1400A9003608AA003708AB000130AC002B0D2D
:101F2400AB0CAA0CA90CA80CAC0B912F2B08B70076
:101F34002A08B6002908B5002808B4000130B807FB
:101F44000318B90A0030B9073908803AFF00803015
:101F54007F02031DAF2FFF303802031CB22FB32FB3
:101F6400BE2F7F3083120313B7008030B6000030D9
:101F7400B5000030B400F32F831203133908803AFC
:101F8400FF0080307F02031DC92F0130380203187F
:101F9400CC2FCD2FD92F003083120313B70000307C
:101FA400B6000030B5000030B400AD01F32F831249
:101FB40003133808A8002808B300FF30B405FF3025
:101FC400B5057F30B6050030B705331CEA2FEB2F7B
:101FD400EC2FB6173308A8000310280CA900290811
:101FE400B7002D08A8002808B7043708A30036084E
:101FF400A2003508A1003408A000080010308A00AF
:102004000408840A820700340034003480343F34E6
:102014001834723431343F34F034FD3475343E3482
:102024004734583463343D34583495341D343C3487
:102034008234C434AE343A34A83478342134393454
:10204400EF34933480343734A0349234A7343534A5
:1020540046345634153434340034003400340034F7
:10206400C434FF347F343F348034EF34FF34BE341F
:102074009034E134A9343E34EC3482347634BE34C2
:102084008234AD342B343E340E343C34C334BD344A
:102094008734D13413343D3441347834D334BB34AD
:0620A40025346434003411
:1026CE00F00070080F39303E0800F00070088312D9
:1026DE0003138500080064008001840A04060319B0
:1026EE0000340406732B0A168A11B7230A168A11B0
:1026FE0083160313911408000A168A11B7230A16BB
:10270E008A1183160313111408000A168A11B723AF
:10271E000A168A118316031311150800303430344B
:10272E002D34303430342D34303430340034F10024
:10273E007108F00004300310F00CFF3E031DA22BB5
:10274E007008303E080000300A168A11E8230A1677
:10275E008A1101300A168A11E8230A168A11080016
:10276E00831603131419BC2BBD2BB72B11081F395D
:10277E00031DC22BC32BB72B0800F11FC72BC82B71
:10278E00D42B7009F2007109F300F20A0319F30A4F
:10279E007208F0007308F100D42B08007E088A003E
:1027AE007F0882000A168A11D5230A168A11800024
:1027BE00840A04087D0603190034FF0A0319FE0A71
:1027CE00D92BF10083120313081071080A168A110F
:1027DE006C230A168A11831203130815F62BF72B96
:1027EE0000008312031308110800831603178801D3
:1027FE008901831603138601880183120313860150
:10280E0088018501831603138501831203130715AF
:10281E0007150030A3000130A2008630A100A030C1
:10282E00A0000A168A11A8250A168A110800F401BA
:10283E00F501701C232C242C2A2C7208F407031883
:10284E00F50A7308F50701300310F20DF30DFF3E84
:10285E00031D2B2C01300310F10CF00CFF3E031D59
:10286E00322C70087104031D3D2C3E2C202C750853
:10287E00F1007408F000080083120313A900A51FCD
:10288E00492C4A2C5A2C2D30FD00290884007D0835
:10289E00831780000130FD007D08A907A409A50952
:1028AE00A40A0319A50A2508F9002408F800270828
:1028BE00FB002608FA0029080A128A1580200A163B
:1028CE008A1108000A168A1183230A168A11D0303B
:1028DE00F0000030F1000A128A1104200A168A1143
:1028EE007308F1007208F0000A128A1104200A1609
:1028FE008A117508F1007408F0000A128A1104207A
:10290E000A168A110A168A118C230A168A110800D1
:10291E00F800F401F5017008F200F3017208F600F8
:10292E007308F700781C9C2C9D2CA32C7608F407BA
:10293E000318F50A7708F50701300310F60DF70DA9
:10294E00FF3E031DA42C0310F80C7808031DB02CB9
:10295E00B12C992C7508F1007408F0000800F500F0
:10296E007503031DBB2CBC2CC82C72087F3EF300D4
:10297E007308F60076080A168A11E8230A168A11D9
:10298E00D92C02307506031DCD2CCE2CD92C7208F5
:10299E00BF3EF3007308F60076080A168A11E82384
:1029AE000A168A110630F4003030F300F30BDD2CDA
:1029BE00F40BDD2C000008000A168A11B7230A1644
:1029CE008A118316031391150A168A11B7230A1654
:1029DE008A11831203131308F200F3017208F40034
:1029EE007308F5000A168A11B7230A168A117003A6
:1029FE007104031D032D042D082D8316031391124C
:102A0E000B2D83160313911611167508F100740819
:102A1E00F0000800831203130C1E162D172D1A2D0D
:102A2E006A0899000C120C1E1D2D1E2D212D5E08FC
:102A3E0099000C120C1E242D252D282D5C089900B2
:102A4E000C120C1E2B2D2C2D332D8316031349081F
:102A5E008312031399000C120C1E362D372D3E2DAA
:102A6E008316031321088312031399000C12080016
:102A7E003034303430342E34303430342034433427
:102A8E002034003430343034303420340034303498
:102A9E0030343A34303430343A3430343034203404
:102AAE0050344D3400343034303430342E343034ED
:102ABE003034203443342034003430343034303425
:102ACE002034203400343034303420340034303468
:102ADE0020340034F801F901912D78087307F600BF
:102AEE007408F5000318F50AF81F7E2DF503750816
:102AFE00F700760884008317771C831300080A12E8
:102B0E008A1502200A168A110130F8070318F90AED
:102B1E000030F90778087307F6007408F5000318FB
:102B2E00F50AF81F9B2DF5037508F700760884004B
:102B3E008317771C83130008031DA62DA72D742D54
:102B4E000800283083120313940083160313910197
:102B5E00831203132008A4002108A5002208A60052
:102B6E002308A70002300310A40DA50DA60DA70D76
:102B7E00FF3E031DBA2D2708F3002608F200250894
:102B8E00F1002408F0000030F7003D30F600093067
:102B9E00F5000030F4000A168A1131270A168A1140
:102BAE007008FF3E831603139300940187150716D2
:102BBE000800700871040319E52DE62D152EF50198
:102BCE00F50AF42D01300310F00DF10DFF3E031D3B
:102BDE00EA2D0130F4007408F507F11FF72DF82DDA
:102BEE00E92D71087302031DFE2D70087202031C7D
:102BFE00012E022E082E7008F2027108031CF30338
:102C0E00F30201300310F10CF00CFF3E031D092EF0
:102C1E000130F502031D142E152EF82D7308F10048
:102C2E007208F00008000A168A1183230A168A1108
:102C3E00D030F0000030F1000A128A1104200A167A
:102C4E008A117708F1007608F0000A128A11042022
:102C5E000A168A110A168A117A230A168A11D13097
:102C6E00F0000030F1000A128A1104200A168A11AF
:102C7E000030F000F1000A168A11E3240A168A11B8
:102C8E007108F9007008F8000A168A118C230A16CA
:102C9E008A117908F7007808F60008000F307605DB
:102CAE00FA0000307705FB007B08F9007A08F8007F
:102CBE00F0307605F60000307705F700760E0F3906
:102CCE00FA00770EF039FA04770E0F39FB00F03068
:102CDE00FB1D0030FB040F307A05FA0000307B0537
:102CEE00FB007B08F1007A08F0000A30F200003099
:102CFE00F3000A168A111E240A168A117808700724
:102D0E00F80079080318790A7107F9007908F700B5
:102D1E007808F6000800F501F60170087104031931
:102D2E00992E9A2ED12EF701F70AA82E01300310F4
:102D3E00F00DF10DFF3E031D9E2E0130F4007408C0
:102D4E00F707F11FAB2EAC2E9D2E01300310F50DA3
:102D5E00F60DFF3E031DAD2E71087302031DB92E35
:102D6E0070087202031CBC2EBD2EC42E7008F20217
:102D7E007108031CF303F302751401300310F10CF8
:102D8E00F00CFF3E031DC52E0130F702031DD02EA1
:102D9E00D12EAC2E7608F1007508F0000800FD016A
:102DAE0083120313A71FDC2EDD2EE42EA609A7091E
:102DBE00A60A0319A70AFD01FD0AA51FE72EE82E94
:102DCE00ED2EA409A509A40A0319A50A24082504B1
:102DDE000319F22EF32E222FFC01FC0A012F0130D3
:102DEE000310A40DA50DFF3E031DF72E0130FB00B1
:102DFE007B08FC07A51F042F052FF62E250827029A
:102E0E00031D0B2F24082602031C0E2F0F2F152F28
:102E1E002408A6022508031CA703A70201300310ED
:102E2E00A50CA40CFF3E031D162F0130FC02031D42
:102E3E00212F222F052F7D080319262F272F2C2F08
:102E4E00A609A709A60A0319A70A2708A500260896
:102E5E00A40008000030FC000030FB000030FA0037
:102E6E000030F90073087204710470040319402FC6
:102E7E00412F8E2FFD01FD0A512F0130F800031056
:102E8E00F00DF10DF20DF30DF80B462F0130F80099
:102E9E007808FD07F31F542F552F442F0130F800EB
:102EAE000310F90DFA0DFB0DFC0DF80B572F7308DF
:102EBE007702031D6C2F72087602031D6C2F7108AA
:102ECE007502031D6C2F70087402031C6F2F702F78
:102EDE007F2F7008F4027108031C710FF50272083F
:102EEE00031C720FF6027308031C730FF70279149A
:102EFE0001300310F30CF20CF10CF00CFF3E031D2D
:102F0E00802F0130FD02031D8D2F8E2F552F7C0833
:102F1E00F3007B08F2007A08F1007908F00008004F
:102F2E0083120313A101F71F9D2F9E2FA52FF609C4
:102F3E00F709F60A0319F70AA101A10AF91FA82F2A
:102F4E00A92FB22FF809F909F80A0319F90A013065
:102F5E00FA007A08A106A201A301760877040319E4
:102F6E00B92FBA2FF12FA001A00AC82F01300310DC
:102F7E00F60DF70DFF3E031DBE2F0130FA007A0845
:102F8E00A007F71FCB2FCC2FBD2F01300310A20DA2
:102F9E00A30DFF3E031DCD2F77087902031DD92FF8
:102FAE0076087802031CDC2FDD2FE42F7608F8025A
:102FBE007708031CF903F902221401300310F70CF1
:102FCE00F60CFF3E031DE52F0130A002031DF02F6E
:102FDE00F12FCC2F21080319F52FF62FFB2FA20965
:102FEE00A309A20A0319A30A2308F7002208F60070
:022FFE000800C9
:04400E00D4E0FFFFFC
:00000001FF
