:020000040000FA
:060000000A128A11EB2F29
:10000E00F300831603138712731D0E280F2813286F
:10001E0072089400871517287008720494008711CF
:10002E0073087104831203139400080083160313DC
:10003E00D201440883120313B1008316031343083D
:10004E0083120313B00083160313420883120313A3
:10005E00AF0083160313410883120313AE00003062
:10006E00B5000030B4000030B3000030B2000A1604
:10007E008A15F8230A128A11031C4628472873286A
:10008E000030F3000030F2000030F1000030F000DC
:10009E00831603134808F7004708F6004608F500D4
:1000AE004508F4000A168A1108200A128A11031C48
:1000BE0061286228682821308316031798000030C3
:1000CE009900003083160313C4000030C3000030C3
:1000DE00C2000030C100E9298316031348088312B9
:1000EE000313B10083160313470883120313B000E2
:1000FE0083160313460883120313AF0083160313EC
:10010E00450883120313AE000030B5000030B40072
:10011E000030B3000030B2000A168A15F8230A1216
:10012E008A11031C9B289C28A7283F308316031393
:10013E00C4008030C3000030C2000030C100E92985
:10014E00831603134408F3004308F2004208F1003B
:10015E004108F0000030F7000030F6000030F500E6
:10016E000030F4000A168A1108200A128A110318A8
:10017E00C128C2285129831603134808F3004708E3
:10018E00F2004608F1004508F0000A168A15DC2533
:10019E000A128A11730883160313D6007208D5004B
:1001AE007108D4007008D300560883120313A300FD
:1001BE0083160313550883120313A2008316031329
:1001CE00540883120313A1008316031353088312DA
:1001DE000313A00000300A168A115E230A128A1138
:1001EE00831203132308B1002208B0002108AF00C8
:1001FE002008AE0083160313480883120313B500BC
:10020E0083160313470883120313B40083160313D4
:10021E00460883120313B300831603134508831293
:10022E000313B2000A168A15F8230A128A1103184C
:10023E0021292229332921308316031798000030F3
:10024E009900003083160313C4000030C300003041
:10025E00C2000030C100E929831603135308013987
:10026E00C9004908D2004408F3004308F2004208CE
:10027E00F1004108F0000A168A157F210A128A1130
:10028E00730883160313C4007208C3007108C200FA
:10029E007008C100831603134408B3004308B2006C
:1002AE004208B1004108B0000A128A1573200A12E2
:1002BE008A11831603133308CD003208CC0031089F
:1002CE00CB003008CA00480883120313C2008316FD
:1002DE000313470883120313C10083160313460842
:1002EE0083120313C00083160313450883120313EE
:1002FE00BF00831603134D0883120313C600831623
:10030E0003134C0883120313C500831603134B0803
:10031E0083120313C400831603134A0883120313B4
:10032E00C3000A128A118A240A128A118312031335
:10033E00420883160313D100831203134108831658
:10034E000313D00083120313400883160313CF0048
:10035E00831203133F0883160313CE005108B9000E
:10036E005008B8004F08B7004E08B6000A128A159A
:10037E0053230A128A11831603133908C40038084E
:10038E00C3003708C2003608C10052080319D0292D
:10039E00D129E9294408F3004308F2004208F1008C
:1003AE004108F0000A168A157F210A128A11730875
:1003BE0083160313C4007208C3007108C2007008CC
:1003CE00C100E92908008312031360088039E10097
:1003DE00610883160313A400831203136008E1005F
:1003EE006107E200620883160313AB008312031346
:1003FE00DF1F022A032A062A831603132B148316E1
:10040E0003132B0803190C2A0D2A202A2B0A031D6D
:10041E00112A122A1C2A003083120313E000003026
:10042E00DF000030DE000030DD008312DF17E00158
:10043E002A2A003083120313E0000030DF00003060
:10044E00DE000030DD005C088039E10061088316B3
:10045E000313A406831203135C08E1006107E20094
:10046E00620883160313AC0083120313DB1F402AAA
:10047E00412A442A831603132C14831603132C08C3
:10048E0003194A2A4B2A5E2A2C0A031D4F2A502A88
:10049E005A2A003083120313DC000030DB000030D8
:1004AE00DA000030D9008312DB17DC01682A003035
:1004BE0083120313DC000030DB000030DA00003062
:1004CE00D9005C085B045A045904031D6F2A702A74
:1004DE008D2A0030E0000030DF000030DE000030FA
:1004EE00DD008030DF047F30E00483160313240820
:1004FE0083120313E1006108E0046008DC005F086A
:10050E00DB005E08DA005D08D900892C8316031320
:10051E002B08031D932A942A9F2A0030831203135B
:10052E00DC000030DB000030DA000030D900892C0E
:10053E002B0883120313E100E2016208E400831624
:10054E0003132C08831203136102E300031CE4035C
:10055E0063087F3E83160313A500831203136408FA
:10056E000318013E003E83160313A60083120313E5
:10057E00600883160313A300831203135F08831608
:10058E000313A200831203135E0883160313A10044
:10059E00831203135D0883160313A0000030831229
:1005AE000313E0000030DF000030DE000030DD001D
:1005BE00003083160313AA000030A9000030A800F3
:1005CE000030A700AC01712B2C080319EF2AF02A7A
:1005DE001F2B013083120313E10003108316031344
:1005EE00A00DA10DA20DA30D83120313E10BF42A8E
:1005FE000130E1000310DD0DDE0DDF0DE00DE10B2E
:10060E00012B83160313AA1F0D2B0E2B112B8312F6
:10061E0003135D1401308312E100031083160313DC
:10062E00A70DA80DA90DAA0D83120313E10B142B10
:10063E0083125C08831603132302031D3C2B8312C3
:10064E0003135B08831603132202031D3C2B831234
:10065E0003135A08831603132102031D3C2B831226
:10066E0003135908831603132002031C3F2B402B40
:10067E00692B2A1783120313590883160313A0023A
:10068E00831203135A08031C5A0F4E2B512B831639
:10069E000313A102831203135B08031C5B0F582B79
:1006AE005B2B83160313A202831203135C08031C35
:1006BE005C0F622B652B83160313A30283120313A5
:1006CE0083160313013083120313E10061088316AE
:1006DE000313AC071A302C02031C762B772BEB2A54
:1006EE00230822042104200403197E2B7F2BA92B1F
:1006FE002714A92B0130E1000310DD0DDE0DDF0DF7
:10070E00E00DE10B832B83160313AA1F8F2B902B67
:10071E00932B831203135D1401308312E100031037
:10072E0083160313A70DA80DA90DAA0D831203138B
:10073E00E10B962BFF3083160313A5070318A60AA9
:10074E00FF30A60783120313DF1FAE2BAF2B812BB7
:10075E0083160313AC01AA1FB52BB62BE22BFF3069
:10076E00270583120313E100FF30831603132805B8
:10077E0083120313E200FF3083160313290583123D
:10078E000313E3007F30831603132A05831203132A
:10079E00E40064086304620461040319D72BD82BA8
:1007AE00DD2B83160313AC01AC0AE22B5D1CE02B90
:1007BE00E12BE22BD82B831603132C080319E82BFD
:1007CE00E92B1E2C013083120313DD0700300318B2
:1007DE000130DE07003003180130DF070030031848
:1007EE000130E007601CFC2BFD2B1E2C5D08E10088
:1007FE005E08E2005F08E3006008E4000130E500F7
:10080E00640DE40CE30CE20CE10CE50B072C640820
:10081E00E0006308DF006208DE006108DD000130E1
:10082E0083160313A5070318A60A0030A60783161E
:10083E0003132608803AFF0080307F02031D292C07
:10084E00FF302502031C2C2C2D2C3D2CFF30831643
:10085E000313A5000030A600003083120313E0003E
:10086E000030DF000030DE000030DD0083160313A1
:10087E002608803AFF0080307F02031D482C01308D
:10088E00250203184B2C4C2C5D2C83160313A5014B
:10089E00A601003083120313E0000030DF000030A9
:1008AE00DE000030DD0083160313A401831603134C
:1008BE00250883120313E100610883160313AB00AE
:1008CE002B1C6A2C6B2C6F2C83120313DF17752CC9
:1008DE007F3083120313E1006108DF0583160313D3
:1008EE002B0883120313E1000310610CE20062086F
:1008FE00E00083160313240883120313E10061083A
:10090E00E004842A08008312031342088039C700CA
:10091E004708CC004208C7004707C8004808D20065
:10092E00C11F9A2C9B2C9C2C521452080319A02CDC
:10093E00A12CB02C520A031DA52CA62CAE2C0030D7
:10094E00C2000030C1000030C0000030BF00C1172F
:10095E00B82C0030C2000030C1000030C0000030A2
:10096E00BF0046088039C7004708CC064608C700B6
:10097E004707C8004808CD00C51FC62CC72CC82C79
:10098E004D144D080319CC2CCD2CDC2C4D0A031D17
:10099E00D12CD22CDA2C0030C6000030C50000302D
:1009AE00C4000030C300C517E42C0030C600003070
:1009BE00C5000030C4000030C3004D080319E82CF8
:1009CE00E92CEE2C5208031DED2CEE2CF72C0030EA
:1009DE00C2000030C1000030C0000030BF00EA2F5E
:1009EE003F08C7004708F00045080A168A15062278
:1009FE000A128A11710883120313D8007008D700E7
:100A0E005708C700C801C901CA014A08D1004908E0
:100A1E00D0004808CF004708CE005808C700C801CC
:100A2E00C901CA014A08D6004908D5004808D400B1
:100A3E004708D3004008C7004708F00044080A16CC
:100A4E008A1506220A128A11710883120313D8001E
:100A5E007008D7005708C700C801C901CA01470866
:100A6E00CE07480803110318013E03193F2DCF0787
:100A7E00490803110318013E0319462DD0074A08F1
:100A8E0003110318013E03194D2DD1075808C70055
:100A9E00C801C901CA014708D30748080311031842
:100AAE00013E03195B2DD407490803110318013EBB
:100ABE000319622DD5074A0803110318013E0319C5
:100ACE00692DD6074108C7004708F00043080A16EB
:100ADE008A1506220A128A11710883120313D8008E
:100AEE007008D7005708C700C801C901CA014708D6
:100AFE00CE07480803110318013E0319872DCF07AF
:100B0E00490803110318013E03198E2DD0074A0818
:100B1E0003110318013E0319952DD1075808C7007C
:100B2E00C801C901CA014708D307480803110318B1
:100B3E00013E0319A32DD407490803110318013EE2
:100B4E000319AA2DD5074A0803110318013E0319EC
:100B5E00B12DD6070830C7000310CE0DCF0DD00D26
:100B6E00D10DC70BB32D4008C7004708F00043084E
:100B7E000A168A1506220A128A11710883120313A5
:100B8E00D8007008D7005708C7005808C800C90118
:100B9E00CA014708CE07480803110318013E03197E
:100BAE00D92DCF07490803110318013E0319E02D73
:100BBE00D0074A0803110318013E0319E72DD10788
:100BCE003F08C7004708F00044080A168A15062297
:100BDE000A128A11710883120313D8007008D70005
:100BEE005708C7005808C800C901CA014708CE07F0
:100BFE00480803110318013E0319062ECF074908B2
:100C0E0003110318013E03190D2ED0074A080311D4
:100C1E000318013E0319142ED1070830C700031024
:100C2E00CE0DCF0DD00DD10DC70B162E3F08C70020
:100C3E004708F00043080A168A1506220A128A117E
:100C4E00710883120313D8007008D7005708C70025
:100C5E005808C800C901CA014708CE074808031141
:100C6E000318013E03193C2ECF0749080311031840
:100C7E00013E0319432ED0074A0803110318013E03
:100C8E0003194A2ED1074008C7004708F00045084F
:100C9E000A168A1506220A128A1171088312031384
:100CAE00D8007008D7005708C7005808C800C901F7
:100CBE00CA014708D307480803110318013E031958
:100CCE00692ED407490803110318013E0319702E2B
:100CDE00D5074A0803110318013E0319772ED607CC
:100CEE004108C7004708F00044080A168A15062274
:100CFE000A128A11710883120313D8007008D700E4
:100D0E005708C7005808C800C901CA014708D307C9
:100D1E00480803110318013E0319962ED4074908FB
:100D2E0003110318013E03199D2ED5074A0803111E
:100D3E000318013E0319A42ED6074108C700470821
:100D4E00F00045080A168A1506220A128A11710841
:100D5E0083120313D8007008D7005708C70058082D
:100D6E00C800C901CA0108300310C70DC80DC90D4E
:100D7E00CA0DFF3E031DBB2E4708D30748080311BB
:100D8E000318013E0319CC2ED4074908031103188A
:100D9E00013E0319D32ED5074A0803110318013E4D
:100DAE000319DA2ED6074E08C7004F08C8005008A0
:100DBE00C9005108CA0018300310CA0CC90CC80C5F
:100DCE00C70CFF3E031DE32E4708D3074808031147
:100DDE000318013E0319F42ED40749080311031812
:100DEE00013E0319FB2ED5074A0803110318013ED5
:100DFE000319022FD6070830C7000310CE0DCF0DF2
:100E0E00D00DD10DC70B042F52084D07C700C801D6
:100E1E00C80D4708823ED70048080318013EFF3E22
:100E2E00D800362F0130C7000310D30DD40DD50DC9
:100E3E00D60DC70B1B2FD11F252F262F272F53144F
:100E4E000130C7000310CE0DCF0DD00DD10DC70B45
:100E5E00292FFF30D7070318D80AFF30D807D51F20
:100E6E00392F3A2F192FCD01D11F3E2F3F2F5B2F38
:100E7E00FF304E05C700FF304F05C800FF3050054C
:100E8E00C9007F305105CA004A0849044804470486
:100E9E000319522F532F562FCD01CD0A5B2F531C02
:100EAE00592F5A2F5B2F532F4D0803195F2F602F89
:100EBE00912F0130D307003003180130D4070030D2
:100ECE0003180130D507003003180130D607561C21
:100EDE00712F722F912F5308C7005408C800550860
:100EEE00C9005608CA000130CB004A0DCA0CC90C05
:100EFE00C80CC70CCB0B7C2F4A08D6004908D5006E
:100F0E004808D4004708D3000130D7070318D80A81
:100F1E000030D8075808803AFF0080307F02031D4A
:100F2E009A2FFF305702031C9D2F9E2FA92F7F3023
:100F3E0083120313D6008030D5000030D400003069
:100F4E00D300DE2F831203135808803AFF0080303F
:100F5E007F02031DB42F013057020318B72FB82F8D
:100F6E00C42F003083120313D6000030D50000309A
:100F7E00D4000030D300CC01DE2F831203135708A8
:100F8E00C7004708D200FF30D305FF30D4057F30AD
:100F9E00D5050030D605521CD52FD62FD72FD517F5
:100FAE005208C7000310470CC8004808D6004C086A
:100FBE00C7004708D6045608C2005508C100540899
:100FCE00C0005308BF00080083160313E801E901AF
:100FDE00EA01EB01EC01ED01831790308400AE3095
:100FEE000A168A1100200A128A1183010A168A1122
:020FFE00D12EF2
:1010020083120313A3007908A1007808A0007B08CB
:10101200F1007A08F0002108F3002008F2000A1615
:101022008A1519230A128A15710883120313A10063
:101032007008A0000130FC007C08A30720082104EE
:10104200031D2428252808282308840083178001EB
:101052000130A3027B08F1007A08F0007908F3005E
:101062007808F2000A168A155A220A128A1570089E
:10107200FC007C0883120313A2007B08F1007A08AB
:10108200F0007908F3007808F2000A168A1519238D
:101092000A128A157108F9007008F8000A308312E2
:1010A20003132202031C562857285B280730FC0032
:1010B2007C08A2073030FC007C08A2072208FC0052
:1010C200230884007C08831780000130A30278087B
:1010D2007904031D6D286E282B280130FC007C0842
:1010E200A3070800831603133308F3003208F20043
:1010F2003108F1003008F0000030F7000030F6004F
:101102000030F5000030F4000A168A1108200A1295
:101112008A1503188D288E289F28213083160317DD
:10112200980000309900003083160313B30000309A
:10113200B2000030B1000030B000CE298316031394
:10114200330883120313B100831603133208831288
:101152000313B00083160313310883120313AF0085
:1011620083160313300883120313AE000030B50058
:101172000030B4000030B3000030B2000A168A1505
:10118200F8230A128A15031CC728C828D928223036
:10119200831603179800003099000030831603135A
:1011A200B3000030B2000030B1000030B000CE29F0
:1011B200BF3083120313DC008030DB000030DA0022
:1011C2000030D9004030C2000030C1000030C00001
:1011D2000030BF006D30FD007D08BE008316031392
:1011E200330883120313BD008316031332088312DC
:1011F2000313BC0083160313310883120313BB00CD
:1012020083160313300883120313BA000A168A15D1
:10121200A1240A128A15831203133D08C6003C0852
:10122200C5003B08C4003A08C3000A128A118A2486
:101232000A128A15831203134208E0004108DF00F4
:101242004008DE003F08DD000A128A1578250A12DE
:101252008A15831203135C0883160313B3008312E7
:1012620003135B0883160313B200831203135A0895
:1012720083160313B1008312031359088316031351
:10128200B000FF3083120313ED070318EE0AFF309C
:10129200EE07831603133308A3003208A2003108B5
:1012A200A1003008A0002930FD007D08A40008300C
:1012B200A5000030A6000A168A111A240A128A15FD
:1012C200831603132308B3002208B2002108B100D9
:1012D2002008B000330883120313DC0083160313C3
:1012E200320883120313DB008316031331088312BF
:1012F2000313DA0083160313300883120313D90091
:101302003F30C2003130C1007230C0001830BF001F
:101312006D08A0006E08A1000030A11BFF30A200E2
:10132200A30001300A168A115E230A128A1583125B
:1013320003132308C6002208C5002108C4002008A0
:10134200C3000A128A118A240A128A15831203130D
:101352004208E0004108DF004008DE003F08DD00EF
:101362000A128A1578250A128A15831203135C0859
:1013720083160313B300831203135B08831603134C
:10138200B200831203135A0883160313B1008312A7
:101392000313590883160313B000080083160313BE
:1013A2005A08F3005908F2005808F1005708F000F3
:1013B2000A168A15DC250A128A1571088316031784
:1013C200B9007008B800380883120313A00083160E
:1013D2000317390883120313A1000030A11BFF3049
:1013E200A200A30001300A168A115E230A128A158E
:1013F20083120313230883160313A3008312031318
:10140200220883160313A2008312031321088316F2
:101412000313A10083120313200883160313A000F1
:101422005A08A7005908A6005808A5005708A400A2
:101432000A168A15A8230A128A158316031323088B
:1014420083160317BD00831603132208831603179E
:10145200BC0083160313210883160317BB008316EF
:101462000313200883160317BA00390883120313E3
:10147200A10083160317380883120313A0008316F2
:1014820003135B08DE005E0883120313A200003020
:10149200A300A4000A168A1564250A128A1583126B
:1014A2000313210883160317B700831203132008BE
:1014B20083160317B600831603135C085D04031931
:1014C200632A642A522B2E30DE0083160317360855
:1014D200831603135B07DF005F0884005E0883172F
:1014E20080005C0883120313A000831603135D08B7
:1014F20083120313A1000030A11BFF30A200A3003E
:1015020001300A168A115E230A128A158312031306
:10151200230883160317B1008312031322088316CC
:101522000317B00083120313210883160317AF00B9
:1015320083120313200883160317AE0031088316A3
:101542000313C80083160317300883160313C7005A
:10155200831603172F0883160313C6008316031777
:101562002E0883160313C5004130C4002030C30087
:101572000030C2000030C1000A128A111D200A1276
:101582008A1583160313440883160317B5008316BE
:101592000313430883160317B40083160313420888
:1015A20083160317B3008316031341088316031728
:1015B200B2003D0883120313C200831603173C08CE
:1015C20083120313C100831603173B08831203130C
:1015D200C000831603173A0883120313BF00831651
:1015E2000317350883120313C60083160317340842
:1015F20083120313C50083160317330883120313E0
:10160200C40083160317320883120313C3000A129D
:101612008A118A240A128A15831203134208831636
:101622000317BD0083120313410883160317BC007E
:1016320083120313400883160317BB00831203139C
:101642003F0883160317BA003D08F3003C08F20076
:101652003B08F1003A08F0000A168A15DC250A1246
:101662008A15710883120313A1007008A000831663
:1016720003135B08013EDE005E0883120313A2001F
:10168200831603135D0883120313A4008316031346
:101692005C0883120313A3000A168A1564250A1232
:1016A2008A15080083160313390883120313B10045
:1016B20083160313380883120313B000831603132F
:1016C200370883120313AF008316031336088312FD
:1016D2000313AE000030B5000030B4000030B30098
:1016E2000030B2000A168A15F8230A128A15031C62
:1016F2007B2B7C2B872B3F3083160313B900803062
:10170200B8000030B7000030B600772D4430F30047
:101712003130F2007230F1001830F00083160313FA
:101722003908F7003808F6003708F5003608F400E3
:101732000A168A1108200A128A150318A12BA22B55
:10174200B32B2230831603179800003099007F30A4
:1017520083160313B9007F30B800FF30B700FF30A3
:10176200B600772D831603133908F3003808F20008
:101772003708F1003608F000C430F7003A30F600BE
:101782004830F5008730F4000A168A1108200A1240
:101792008A150318CD2BCE2BDF2B2230831603178D
:1017A200980000309900003083160313B90000300E
:1017B200B8000030B7000030B600772D831603134F
:1017C2003908F3003808F2003708F1003608F00053
:1017D2000030F7000030F6000030F5000030F40071
:1017E2000A168A1108200A128A15031CF92BFB2BF0
:1017F2000130FC2B003083120313EF006F088316B5
:101802000313C00040080319072C082C1F2C3908A9
:10181200F3003808F2003708F1003608F0000A1623
:101822008A157F210A128A15730883160313B900D9
:101832007208B8007108B7007008B6003F30831212
:101842000313C200B830C100AA30C0003B30BF0051
:1018520083160313390883120313C6008316031376
:10186200380883120313C500831603133708831243
:101872000313C40083160313360883120313C30031
:101882000A128A118A240A128A1583120313420841
:1018920083160313B900831203134108831603133B
:1018A200B80083120313400883160313B700831290
:1018B20003133F0883160313B6003908A300380840
:1018C200A2003708A1003608A0000A168A11D825FE
:1018D2000A128A15831603132308BD002208BC00CE
:1018E2002108BB002008BA003D08F3003C08F200C2
:1018F2003B08F1003A08F0000A168A15DC250A12A4
:101902008A15710883160313BF007008BE003E08D3
:1019120083120313A000831603133F0883120313D9
:10192200A1000030A11BFF30A200A30001300A1663
:101932008A115E230A128A1583120313230883165F
:101942000313A30083120313220883160313A200B6
:1019520083120313210883160313A10083120313B6
:10196200200883160313A0003908A7003808A60030
:101972003708A5003608A4000A168A15A8230A12F9
:101982008A15831603132308B9002208B800210818
:10199200B7002008B6003908A3003808A2003708AB
:1019A200A1003608A000013083120313EF006F0874
:1019B20083160313A4000930A5000030A6000A16FE
:1019C2008A111A240A128A15831603132308B300F4
:1019D2002208B2002108B1002008B0003F08B5007B
:1019E2003E08B4000A168A11F4240A128A158316D4
:1019F20003133308B9003208B8003108B7003008C1
:101A0200B60040080319062D072D772D39088312D9
:101A12000313B10083160313380883120313B000B3
:101A220083160313370883120313AF0083160313BD
:101A3200360883120313AE007F30B5007F30B40046
:101A4200FF30B300FF30B2000A168A15F8230A12DB
:101A52008A15031C2D2D2E2D392D003083160313CC
:101A6200B9000030B8000030B7000030B600772D62
:101A720083160313390883120313DC00831603133E
:101A8200380883120313DB0083160313370883120B
:101A92000313DA0083160313360883120313D900E3
:101AA2003F30E0008030DF000030DE000030DD003B
:101AB2000A128A11EA210A128A15831203135C0898
:101AC20083160313B900831203135B0883160313EF
:101AD200B800831203135A0883160313B700831244
:101AE2000313590883160313B600772D08008312D7
:101AF20003135C088039E1006108E9005C08E10039
:101B02006107E2006208EB00DB1F882D892D8A2D18
:101B12006B146B0803198E2D8F2D9F2D6B0A031DDD
:101B2200932D942D9C2D0030DC000030DB00003022
:101B3200DA000030D900DB17DC01A72D0030DC0011
:101B42000030DB000030DA000030D9006008803954
:101B5200E1006108EA006A0869060319B12DB22D95
:101B6200B32D69176008E1006107E2006208EA002C
:101B7200DF1FBC2DBD2DBE2D6A146A080319C22DAC
:101B8200C32DD32D6A0A031DC72DC82DD02D0030B9
:101B9200E0000030DF000030DE000030DD00DF1743
:101BA200E001DB2D0030E0000030DF000030DE001D
:101BB2000030DD006B086A020318E02DE12D252EAE
:101BC200691FE42DE52DE92D8030E1006108E90669
:101BD2006B08E1006108EC006A08E1006108EB00B3
:101BE2006C08E1006108EA005908E1006108EC00B4
:101BF2005D08E1006108D9006C08E1006108DD00C0
:101C02005A08E1006108EC005E08E1006108DA00B0
:101C12006C08E1006108DE005B08E1006108EC008D
:101C22005F08E1006108DB006C08E1006108DF0089
:101C32005C08E1006108EC006008E1006108DC007A
:101C42006C08E1006108E000EC016A08E100E201D1
:101C52006208E4006B086102E300031CE403640809
:101C6200803AFF0080307F02031D392E1A30630252
:101C7200031C3C2E3D2E7A2E831203135C085B0458
:101C82005A045904031D462E482E0130492E0030B5
:101C9200E1006108EC000030DC000030DB000030C5
:101CA200DA000030D9006A08E1006108EB00822EF8
:101CB2006C1C5C2E5D2E662E6C08E1000310610C1C
:101CC2000138E2006208EC00682E0310EC0C591C8B
:101CD2006B2E6C2E6D2EEC170130E1005C0DDC0CCE
:101CE200DB0CDA0CD90CE10B6F2E0130E10061083C
:101CF200EB07831203136A086B02031C812E822EE8
:101D0200592E691B852E862ED12E6B08031D8A2E15
:101D12008B2E942E0030DC000030DB000030DA0025
:101D22000030D900FF2F5D08D9075E0803110318A0
:101D3200013E03199D2EDA075F0803110318013EC5
:101D42000319A42EDB07600803110318013E0319CF
:101D5200AB2EDC075C1CAE2EAF2E852F6C1CB22E78
:101D6200B32EBC2E6C08E1000310610C0138E200B6
:101D72006208EC00BE2E0310EC0C591CC12EC22EC0
:101D8200C32EEC170130E1005C0DDC0CDB0CDA0C2D
:101D9200D90CE10BC52E0130E1006108EB07852F5C
:101DA2005C08803AFF006008803A7F02031DE32E40
:101DB2005F085B02031DE32E5E085A02031DE32E39
:101DC2005D0859020318E62EE72E3F2FFF30E1008F
:101DD200FF30E200FF30E300FF30E4005D08E50081
:101DE2005E08E6005F08E7006008E8005908E502BF
:101DF2005A08031C5A0FFE2EFF2EE6025B08031C34
:101E02005B0F042F052FE7025C08031C5C0F0A2FEF
:101E12000B2FE8026508E10766080318660F122F08
:101E2200132FE20767080318670F182F192FE3070C
:101E320068080318680AE4076408DC006308DB002A
:101E42006208DA006108D9008030E1006108E90621
:101E5200EC09EC0A6C08031D2F2F302F4D2F013097
:101E6200D907003003180130DA07003003180130B7
:101E7200DB07003003180130DC074D2F5D08D90263
:101E82005E08031C5E0FDA025F08031C5F0FDB02B1
:101E92006008031C600FDC025C085B045A045904EE
:101EA200031D542F552F812F6C08031D592F5A2FB4
:101EB200812F0030DC000030DB000030DA0000301F
:101EC200D900FF2F0130E1000310D90DDA0DDB0D2F
:101ED200DC0DE10B652FEC1F6F2F702F712F591442
:101EE2006C1C742F752F782F0314EC0D7A2F0310AE
:101EF200EC0D6B0803197E2F7F2F812F0130EB022F
:101F0200DB1F842F852F632FEA01EC1F892F8A2F75
:101F1200982F6C087F3903198F2F902F932FEA0186
:101F2200EA0A982F591C962F972F982F902F6A08FC
:101F320003199C2F9D2FD12F0130D9070030031890
:101F42000130DA07003003180130DB0700300318D4
:101F52000130DC075C1CAE2FAF2FD12F5908E100F6
:101F62005A08E2005B08E3005C08E4000130E50087
:101F7200640DE40CE30CE20CE10CE50BB92F6408F0
:101F8200DC006308DB006208DA006108D9006B0A32
:101F92000319CC2FCD2FD12F0130E1006108EB07BF
:101FA2006B0A0319D52FD62FDB2F6B08031DDA2FEF
:101FB200DB2FE92F0030DC000030DB000030DA00DC
:101FC2000030D9006B08031DE72FE82FE92FE90144
:101FD2006B1CEC2FED2FEF2FDB17F32F7F30E1007F
:101FE2006108DB056B08E1000310610CE200620886
:101FF200DC00E91FFD2FFE2FFF2FDC170800640015
:102002008001840A04060319003404060128003002
:102012007005F80000307105F90080307205FA0091
:102022007F307305FB007B087A0479047804031D72
:102032001B281C2824280030F3000030F200003056
:10204200F1000030F00000307405F8000030750532
:10205200F90080307605FA007F307705FB007B08B7
:102062007A0479047804031D372838284028003080
:10207200F7000030F6000030F5000030F400F31FE6
:102082004328442868280030F8000030F900003066
:10209200FA008030FB007008F8027108031C710F0F
:1020A20053285428F9027208031C720F59285A281F
:1020B200FA027308031C730F5F286028FB027B0877
:1020C200F3007A08F2007908F1007808F000F71FAF
:1020D2006B286C2890280030F8000030F90000309E
:1020E200FA008030FB007408F8027508031C750FB3
:1020F2007B287C28F9027608031C760F8128822827
:10210200FA027708031C770F87288828FB027B08CE
:10211200F7007A08F6007908F5007808F4008030B4
:10212200F3068030F70677087302031DA2287608AB
:102132007202031DA22875087102031DA2287408E9
:1021420070020318A528A628A8280310A92803149A
:10215200080083120313EA00033083120313E7001B
:102162009730E600E60BB328E70BB328831203137C
:102172006A08E600660883160313EC0043308312F4
:102182000313DC007F30DB000030DA000030D900BE
:102192004030C200A030C1000030C0000030BF009B
:1021A200831603136C0883120313E600E701E801A8
:1021B200E9016908A3006808A2006708A10066088F
:1021C200A00001300A168A115E230A168A118312B0
:1021D20003132308C6002208C5002108C4002008F2
:1021E200C3000A128A118A240A168A11831203135F
:1021F2004208E0004108DF004008DE003F08DD0041
:102202000A128A11EA210A168A11831203135C0840
:10221200831603179700831203135B0883160317B1
:102222009600831203135A0883160317950083122C
:10223200031359088316031794001708F3001608AE
:10224200F2001508F1001408F0000A168A15DC25C0
:102252000A168A11710883120313A5007008A400DC
:102262000A30A6000030A700A4300A168A15E02121
:102272000A168A11A430F3000130F4000A168A15F6
:1022820094220A168A110D3083120313E700FB30E1
:10229200E600E60B4A29E70B4A29080083120313DA
:1022A200EA00033083120313E7009730E600E60BDF
:1022B2005829E70B5829831203136A08E6006608B7
:1022C20083160313EB00433083120313DC007F30C9
:1022D200DB000030DA000030D9004030C200A0300C
:1022E200C1000030C0000030BF00831603136B082A
:1022F20083120313E600E701E801E9016908A3007C
:102302006808A2006708A1006608A00001300A164A
:102312008A115E230A168A11831203132308C60048
:102322002208C5002108C4002008C3000A128A112D
:102332008A240A168A11831203134208E000410814
:10234200DF004008DE003F08DD000A128A11EA21A0
:102352000A168A11831203135C088316031793006B
:10236200831203135B08831603179200831203136D
:102372005A08831603179100831203135908831610
:10238200031790001308F3001208F2001108F1007D
:102392001008F0000A168A15DC250A168A1171083F
:1023A20083120313A5007008A4000A30A6000030AF
:1023B200A7009A300A168A15E0210A168A119A3065
:1023C200F3000130F4000A168A1594220A168A11C3
:1023D2000D3083120313E700FB30E600E60BEF2912
:1023E200E70BEF29080083160313E400033083167A
:1023F2000313E1009730E000E00BFD29E10BFD291A
:10240200831603136408E0006008EC004330831273
:102412000313DC007F30DB000030DA000030D9002B
:102422004030C200A030C1000030C0000030BF0008
:10243200831603136C08E000E101E201E301630883
:1024420083120313A3008316031362088312031378
:10245200A20083160313610883120313A1008316DB
:102462000313600883120313A00001300A168A11B5
:102472005E230A168A11831203132308C600220858
:10248200C5002108C4002008C3000A128A118A2448
:102492000A168A11831203134208E0004108DF0082
:1024A2004008DE003F08DD000A128A11EA210A16FE
:1024B2008A11831203135C08831603179700831291
:1024C20003135B08831603179600831203135A083B
:1024D20083160317950083120313590883160317F3
:1024E2009400170883160313DA00831603171608DD
:1024F20083160313D90083160317150883160313D3
:10250200D80083160317140883160313D700A430C8
:10251200E0006008DB000230DC000030DD000A125F
:102522008A15CF210A168A11A430F3000130F40073
:102532000A168A1594220A168A110D30831603137D
:10254200E100FB30E000E00BA42AE10BA42A080022
:1025520083160313E400033083160313E10097305C
:10256200E000E00BB22AE10BB22A831603136408DF
:10257200E0006008EB00433083120313DC007F307D
:10258200DB000030DA000030D9004030C200A03059
:10259200C1000030C0000030BF00831603136B0877
:1025A200E000E101E201E301630883120313A300E7
:1025B20083160313620883120313A2008316031304
:1025C200610883120313A1008316031360088312A8
:1025D2000313A00001300A168A115E230A168A111B
:1025E200831203132308C6002208C5002108C40071
:1025F2002008C3000A128A118A240A168A11831239
:1026020003134208E0004108DF004008DE003F08F3
:10261200DD000A128A11EA210A168A1183120313B3
:102622005C08831603179300831203135B08831657
:1026320003179200831203135A088316031791009B
:102642008312031359088316031790001308831685
:102652000313DA0083160317120883160313D90033
:1026620083160317110883160313D8008316031762
:10267200100883160313D7009A30E0006008DB00CD
:102682000230DC000030DD000A128A15CF210A1662
:102692008A119A30F3000130F4000A168A15942246
:1026A2000A168A110D3083160313E100FB30E00095
:1026B200E00B592BE10B592B080083120313A800DE
:1026C20028080319652B662B7A2BA31F692B6A2B0B
:1026D2007A2B2009AA002109AB002209AC002309A8
:1026E200AD00AA0A0319AB0A0319AC0A0319AD0A11
:1026F200822B2308AD002208AC002108AB00200881
:10270200AA002308220421042004031D892B8A2BFA
:10271200932B0030A3000030A2000030A100003053
:10272200A000192C9630A4002408A900A52B013082
:10273200A4002408A90701300310AD0CAC0CAB0CAB
:10274200AA0CFF3E031D9D2BFE302D05031DAA2B57
:10275200AB2B982BC72B0130A4002408A90701300A
:10276200AA07003003180130AB070030031801300C
:10277200AC07003003180130AD0701300310AD0C77
:10278200AC0CAB0CAA0CFF3E031DBF2BFF302D057A
:10279200031DCC2BCD2BAC2BD92B0130A902013040
:1027A200A4000310AA0DAB0DAC0DAD0DA40BD22BE2
:1027B200AC1BDC2BDD2BE32B023029020318E22BAE
:1027C200E32BCE2B2918E62BE72BEF2BFF30AA05A4
:1027D200FF30AB057F30AC05FF30AD050310A90C0F
:1027E2002908A400A501A601A70118300310A40D11
:1027F200A50DA60DA70DFF3E031DF72B2408AA0465
:102802002508AB042608AC042708AD0428080319E0
:102812000B2C0C2C112CA31F0F2C102C112CAD17D0
:102822002D08A3002C08A2002B08A1002A08A00052
:102832000800831603132508A70001300310A70D13
:10284200FF3E031D1F2C0310270D240784000A16C8
:102852008A150A200A168A11A8000A168A150A2061
:102862000A168A11A9000A168A150A200A168A115E
:10287200AA000A168A150A200A168A11AB002B082A
:10288200AF002A08AE002908AD002808AC00E52CEC
:10289200FF30A5070318A60AFF30A6072508A700E0
:1028A20001300310A70DFF3E031D522C0310270D0C
:1028B200240784000A168A150A200A168A11A8001B
:1028C2000A168A150A200A168A11A9000A168A15FA
:1028D2000A200A168A11AA000A168A150A200A165E
:1028E2008A11AB002B0883120313DC008316031337
:1028F2002A0883120313DB008316031329088312A9
:102902000313DA0083160313280883120313D90072
:10291200831603132F0883120313C20083160313B3
:102922002E0883120313C100831603132D0883128A
:102932000313C000831603132C0883120313BF0072
:1029420083160313230883120313C600831603138B
:10295200220883120313C50083160313210883126E
:102962000313C40083160313200883120313C30046
:102972000A128A118A240A168A1183120313420840
:10298200E0004108DF004008DE003F08DD000A12D7
:102992008A1578250A168A11831203135C08831696
:1029A2000313AF00831203135B0883160313AE00F5
:1029B200831203135A0883160313AD008312031301
:1029C200590883160313AC0025082604031DEA2CBC
:1029D200EB2C492C2F08A3002E08A2002D08A100E1
:1029E2002C08A00008008316031333088312031374
:1029F200B10083160313320883120313B000831647
:102A02000313310883120313AF0083160313300834
:102A120083120313AE000030B5000030B400003062
:102A2200B3000030B2000A168A15F8230A168A117A
:102A3200031C1C2D1D2D282D003083160313B300FB
:102A42000030B2000030B1000030B000D72D831644
:102A5200031333087F3983120313ED00EE010310D1
:102A6200ED0DEE0D6D0883160313B4070318B50AB6
:102A7200831203136E0883160313B507320D320D4A
:102A8200013983120313ED00EE016D08831603135F
:102A9200B4070318B50A831203136E0883160313CF
:102AA200B507B51F552D562D672D223083160317F6
:102AB200980000309900003083160313B3000030F1
:102AC200B2000030B1000030B000D72D3508803A96
:102AD200FF0081307F02031D702D00303402031C81
:102AE200732D742DAB2D22308316031798000030FE
:102AF2009900831603133308F3003208F2003108F9
:102B0200F1003008F0000030F7000030F60000302D
:102B1200F5000030F4000A168A1108200A168A11FC
:102B22000318942D952DA02DFF3083160313B300A7
:102B32007F30B200FF30B100FF30B000D72D7F30C0
:102B420083160313B3007F30B200FF30B100FF30B1
:102B5200B000D72D83160313350883120313EE003A
:102B620083160313340883120313ED006E0DEE0C6B
:102B7200ED0C831603133308831203136D06803999
:102B82006D0683160313B30034080139831203134D
:102B9200ED00ED0CED0C83160313320883120313C0
:102BA2006D067F396D0683160313B2000800831683
:102BB2000313230883120313BD0083160313220891
:102BC20083120313BC008316031321088312031319
:102BD200BB0083160313200883120313BA00A83024
:102BE200FD007D08BE000A168A15A1240A168A1164
:102BF20083160313A91FFE2DFF2D2E2E2308F3008B
:102C02002208F2002108F1002008F0000030F7004D
:102C12000030F6000030F5000030F4000A168A1188
:102C220008200A168A110318172E182E232EBF30D9
:102C320083160313A3008030A2000030A1000030ED
:102C4200A000D02E003083160313A3000030A20090
:102C52000030A1000030A000D02E003029021D302B
:102C620003192802031C362E372E382ED02E2308A5
:102C7200F3002208F2002108F1002008F0000A16F1
:102C82008A15DC250A168A11730883120313A3001E
:102C92007208A2007108A1007008A00001300A1693
:102CA2008A115E230A168A118312031323088316DC
:102CB2000313A70083120313220883160313A6002B
:102CC20083120313210883160313A500831203132F
:102CD200200883160313A4002308F3002208F2003D
:102CE2002108F1002008F0002708F7002608F60066
:102CF2002508F5002408F4000A168A1108200A168D
:102D02008A110318852E862EC62EBF308312031316
:102D1200DC008030DB000030DA000030D90083169E
:102D22000313270883120313E000831603132608F4
:102D320083120313DF008316031325088312031380
:102D4200DE0083160313240883120313DD000A1224
:102D52008A1578250A168A11831203135C088316D2
:102D62000313A300831203135B0883160313A20049
:102D7200831203135A0883160313A1008312031349
:102D8200590883160313A000D02E831603132708B5
:102D9200A3002608A2002508A1002408A00008001C
:102DA2000A168A15C2210A168A11831603131812EB
:102DB2001815831603178715193083160313990004
:102DC2009A01831203139817181318168316031304
:102DD2009816831203138801880106100A168A15B1
:102DE20056260A168A110A168A158A210A168A1185
:102DF200033083160313E7008A30E6005530E500FE
:102E0200E50B012FE60B012FE70B012FF301F30A6C
:102E120001300A168A152D220A168A114D30F30046
:102E22008030F4000A168A1594220A168A11073095
:102E320083160313E5006508F30001300A168A15AC
:102E42002D220A168A115030F3008030F4000A163F
:102E52008A1594220A168A110D3083160313E5008F
:102E62006508F30001300A168A152D220A168A1106
:102E72005330F3008030F4000A168A1594220A16A1
:102E82008A11053083160313E5006508F30002304A
:102E92000A168A152D220A168A115630F30080303E
:102EA200F4000A168A1594220A168A110B30831628
:102EB2000313E5006508F30002300A168A152D2275
:102EC2000A168A115630F3008030F4000A168A1569
:102ED20094220A168A110A168A15D6220A168A110D
:102EE200823083160313E600DD30E500E50B772F11
:102EF200E60B772F83120313071101300A168A1586
:102F020069210A168A110A168A1576210A168A1169
:102F120083160313E5006508E900F301F30A0230A2
:102F22000A168A152D220A168A11831603136908B6
:102F32000A168A11AA200A168A110230831603136E
:102F4200E5006508F30002300A168A152D220A16DA
:102F52008A118316031369080A168A11F4210A16C4
:102F62008A11831203130715823083160313E600B6
:102F7200DD30E500E50BBB2FE60BBB2F83120313FD
:102F8200071100300A168A1569210A168A110A16D3
:102F92008A1576210A168A1183160313E50065083D
:102FA200E8000730E5006508F30002300A168A15CA
:102FB2002D220A168A118316031368080A168A112B
:102FC2004F210A168A11083083160313E50065089B
:102FD200F30002300A168A152D220A168A11831668
:102FE200031368080A168A11A9220A168A11831283
:102FF200031307150614072F0A128A110028FF1B54
:103002000A2883137F1883170008840A0319FF0A0A
:10301200080018308A000408840A82070034003449
:10302200003480343F341834723431343F34F03455
:10303200FD3475343E344734583463343D345834A7
:1030420095341D343C348234C434AE343A34A8341A
:10305200783421343934EF34933480343734A03423
:103062009234A7343534463456341534343400346B
:10307200003400340034C434FF347F343F348034AD
:10308200EF34FF34BE349034E134A9343E34EC34AE
:1030920082347634BE348234AD342B343E340E3432
:1030A2003C34C334BD348734D13413343D344134D9
:1030B2007834D334BB345034313400345034323465
:0C30C200003450343334003476340034D1
:1032C600F00070088312031385000800F0007008F0
:1032D600831203139300080083160313141C742926
:1032E60075296F2908000A168A156F210A168A158C
:1032F6008312031313080800730872047104700420
:1033060003198629872989298030F30608000030A9
:103316000A168A1597210A168A1501300A168A1581
:1033260097210A168A150800F20083120313081063
:1033360072080A168A1563210A168A158312031360
:1033460008150330F100F10BA629831203130811A7
:103356000800F20083120313081472080A168A156D
:1033660063210A168A158312031308151A30F10011
:10337600F10BBB2900008312031308110800831602
:10338600031788018901831603138501831203132A
:10339600850183160313071186018801831203131F
:1033A600860188010715F001F101F20120300A12A9
:1033B6008A1107200A168A15080083120313A9002A
:1033C600A51FE629E729F7292D30FD0029088400E5
:1033D6007D08831780000130FD007D08A907A40938
:1033E600A509A40A0319A50A2508F9002408F80066
:1033F6002708FB002608FA0029080A128A15012068
:103406000A168A150800F800F401F5017008F200A2
:10341600F3017208F6007308F700781C132A142AC1
:103426001A2A7608F4070318F50A7708F507013013
:103436000310F60DF70DFF3E031D1B2A0310F80CB3
:103446007808031D272A282A102A7508F10074080F
:10345600F0000800F6007603031D322A332A3F2ABD
:1034660073087F3EF4007408F70077080A168A1579
:1034760097210A168A15502A02307606031D442A19
:10348600452A502A7308BF3EF4007408F7007708EF
:103496000A168A1597210A168A150B30F50062302E
:1034A600F400F40B542AF50B542A000008007008A7
:1034B600710403195F2A602A8F2AF501F50A6E2A1C
:1034C60001300310F00DF10DFF3E031D642A01309B
:1034D600F4007408F507F11F712A722A632A71082D
:1034E6007302031D782A70087202031C7B2A7C2A49
:1034F600822A7008F2027108031CF303F3020130FA
:103506000310F10CF00CFF3E031D832A0130F50277
:10351600031D8E2A8F2A722A7308F1007208F000A2
:103526000800F801F901B92A78087307F60074084B
:10353600F5000318F50AF81FA12AF5037508F70028
:10354600770883120313FF00760884000A168A158B
:1035560000200A168A150A168A15AC210A168A153B
:103566000130F8070318F90A0030F90778087307DD
:10357600F6007408F5000318F50AF81FC32AF503C8
:103586007508F700770883120313FF007608840096
:103596000A168A1500200A168A15003A031DD42A2F
:1035A600D52A972A0800831203138C168C1EDC2A50
:1035B600DD2A022B0D3083160313E4006408F300A2
:1035C60002300A168A152D220A168A150A168A1537
:1035D600D2260A168A150E3083160313E4006408F1
:1035E600F30002300A168A152D220A168A150A16C3
:1035F6008A1560270A168A15831203138C120C1E6D
:10360600052B062B0D2B8316031369088312031350
:1036160099000C120C1E102B112B182B831603135A
:1036260068088312031399000C120800F501F601CD
:10363600700871040319202B212B582BF701F70A68
:103646002F2B01300310F00DF10DFF3E031D252B2E
:103656000130F4007408F707F11F322B332B242BAB
:1036660001300310F50DF60DFF3E031D342B7108D6
:103676007302031D402B70087202031C432B442B5C
:103686004B2B7008F2027108031CF303F302751446
:1036960001300310F10CF00CFF3E031D4C2B0130E2
:1036A600F702031D572B582B332B7608F1007508AC
:1036B600F0000800FB00F701F8017008FF3EF90072
:1036C60071080318013EFF3EFA00992B77087B0725
:1036D600F2007208840083170008F300F4017308EF
:1036E600F5007408F60079087B07F200720884007A
:1036F6000008F30077087B07F40074088400730859
:1037060080007508F20079087B07F30073088400CF
:10371600720880000130F7070318F80A0030F8072E
:10372600FF30F9070318FA0AFF30FA077808803ADB
:10373600F2007A08803A7202031DA32B79087702F9
:10374600031CA62BA72B692B0800803083160313B6
:10375600A306270883120313DC0083160313260827
:1037660083120313DB008316031325088312031346
:10377600DA0083160313240883120313D900831671
:103786000313230883120313E0008316031322088E
:1037960083120313DF008316031321088312031316
:1037A600DE0083160313200883120313DD000A12BA
:1037B6008A1578250A168A15831203135C08831660
:1037C6000313A300831203135B0883160313A200DB
:1037D600831203135A0883160313A10083120313DB
:1037E600590883160313A000080000308312031340
:1037F6002E05B60000302F05B70080303005B80022
:103806007F303105B9003908380437043604031D02
:103816000D2C0E2C162C0030B1000030B0000030FC
:10382600AF000030AE0000303205B6000030330580
:10383600B70080303405B8007F303505B900390847
:10384600380437043604031D292C2A2C322C003068
:10385600B5000030B4000030B3000030B2003508C7
:103866003106031D402C34083006031D402C330856
:103876002F06031D402C32082E060319432C442C18
:10388600462C0310472C03140800F601F31F4C2C9A
:103896004D2C542CF209F309F20A0319F30AF60126
:1038A600F60AF11F572C582C5D2CF009F109F00A85
:1038B6000319F10A700871040319622C632C922C07
:1038C600F501F50A712C01300310F00DF10DFF3EE4
:1038D600031D672C0130F4007408F507F11F742CE2
:1038E600752C662C71087302031D7B2C70087202FE
:1038F600031C7E2C7F2C852C7008F2027108031C99
:10390600F303F30201300310F10CF00CFF3E031D2C
:10391600862C0130F502031D912C922C752C76080D
:103926000319962C972C9C2CF209F309F20A031919
:10393600F30A7308F1007208F000080083120313FB
:103946003D08B1003C08B0003B08AF003A08AE00A5
:103956000030B5000030B4000030B3000030B200D3
:103966000A168A15F8230A168A15031CBB2CBC2CCA
:10397600CD2C831203133E08840083138001840A2E
:1039860080010030BD000030BC000030BB000030BC
:10399600BA00FC2C831203133D087F39FB00FC019F
:1039A6000310FB0DFC0D3E0884007B08831380008A
:1039B600840A7C0880003C0D3C0D0139FB00FC01AB
:1039C6003E0884007B088004840A7C0880043E0844
:1039D600840082308007840F00080318000AFF0065
:1039E600FF307F07800084033D0880393F38BD00E3
:1039F600BC130800F601F11F012D022D092DF00957
:103A0600F109F00A0319F10AF601F60AF31F0C2D63
:103A16000D2D162DF209F309F20A0319F30A0130E6
:103A2600F4007408F606F701F8017008710403192A
:103A36001D2D1E2D552DF501F50A2C2D01300310D7
:103A4600F00DF10DFF3E031D222D0130F400740828
:103A5600F507F11F2F2D302D212D01300310F70D05
:103A6600F80DFF3E031D312D71087302031D3D2D18
:103A760070087202031C402D412D482D7008F20279
:103A86007108031CF303F302771401300310F10CE1
:103A9600F00CFF3E031D492D0130F502031D542D88
:103AA600552D302D76080319592D5A2D5F2DF709FE
:103AB600F809F70A0319F80A7808F1007708F00000
:103AC600080083120313A501A6019C2D0A30F000FD
:103AD6000030F1002108F3002008F2000A168A15CA
:103AE60048240A168A157008303EFC008312031318
:103AF60025082207FD007D0884007C0883178000C6
:103B06000130A5070318A60A0030A6070A30F00000
:103B16000030F1002108F3002008F2000A168A1589
:103B2600FD240A168A15710883120313A100700872
:103B3600A00020082104031DA12DA22D692DCD2D45
:103B46003030FC008312031325082207FD007D0890
:103B560084007C08831780000130A5070318A60A95
:103B66000030A6072608F1002508F00022080A16EC
:103B76008A155D230A168A15831203132508220760
:103B8600FC007C088400831780012608A100250814
:103B9600A000DB2D2608803AFC002408803A7C022F
:103BA600031DD72D23082502031CDA2DDB2DA32D9B
:103BB60008000310720D730DF4007408FA007A08F9
:103BC600031DE62DE72DF02D0030F3000030F20046
:103BD6000030F1000030F000552E7008F400710836
:103BE600F5007208F6007308F7001F300310F70C93
:103BF600F60CF50CF40CFF3E031DF92D7408F800C5
:103C06007808F900F217FF30F005FF30F105FF30B4
:103C1600F2050030F3059630FA02FA1F132E142E21
:103C26002E2E7A08803A973E03181A2E1B2E1C2E2B
:103C3600E72D01300310F30CF20CF10CF00CFF3EF3
:103C4600031D1D2E0130F4007408FA07031D2C2EE7
:103C56002D2E1C2E452E20307A02031C332E342E98
:103C6600402EE72D0130F4000310F00DF10DF20D9A
:103C7600F30DF40B372E0130FA027A08031D442E99
:103C8600452E352E79080319492E4A2E552EF00950
:103C9600F109F209F309F00A0319F10A0319F20A04
:103CA6000319F30A08003430F400F130F300F30B83
:103CB6005A2EF40B5A2E5F2E30300A168A1597218B
:103CC6000A168A151A30F400F830F300F30B692E41
:103CD600F40B692E000030300A168A1597210A1651
:103CE6008A154930F300F30B762E30300A168A1502
:103CF60097210A168A151D30F4009130F300F30B54
:103D0600822EF40B822E38300A168A1597210A164F
:103D16008A150B30F4006230F300F30B902EF40B8F
:103D2600902E000008300A168A1597210A168A1561
:103D36000B30F4006230F300F30B9F2EF40B9F2E32
:103D4600000001300A168A1597210A168A150B30CB
:103D5600F4006230F300F30BAE2EF40BAE2E00002F
:103D660006300A168A1597210A168A150B30F400B2
:103D76006230F300F30BBD2EF40BBD2E00000C30A9
:103D86000A168A1597210A168A150B30F400623036
:103D9600F300F30BCC2EF40BCC2E0000080083129C
:103DA60003131A08E600660883160313EA00433075
:103DB60083120313DC007F30DB000030DA000030B2
:103DC600D9004030C200A030C1000030C000003031
:103DD600BF00831603136A0883120313E600E70184
:103DE600E801E9016908A3006808A2006708A100C4
:103DF6006608A00001300A168A115E230A168A1583
:103E0600831203132308C6002208C5002108C40034
:103E16002008C3000A128A118A240A168A158312F8
:103E260003134208E0004108DF004008DE003F08B7
:103E3600DD000A128A11EA210A168A158312031373
:103E46005C08831603179700831203135B08831617
:103E560003179600831203135A0883160317950057
:103E66008312031359088316031794001708F300E7
:103E76001608F2001508F1001408F0000A168A1553
:103E8600DC250A168A15710883120313A50070082B
:103E9600A4000A30A6000030A700A4300A168A152E
:103EA600E0210A168A15A430F3000130F4000A1640
:103EB6008A1594220A168A150800831203131A0813
:103EC60083160313E0006008EA00433083120313ED
:103ED600DC007F30DB000030DA000030D9004030F3
:103EE600C200A030C1000030C0000030BF00831601
:103EF60003136A08E000E101E201E30163088312AB
:103F06000313A30083160313620883120313A2008C
:103F160083160313610883120313A1008316031388
:103F2600600883120313A00001300A168A115E236B
:103F36000A168A15831203132308C6002208C50031
:103F46002108C4002008C3000A128A118A240A160E
:103F56008A15831203134208E0004108DF00400877
:103F6600DE003F08DD000A128A11EA210A168A15C8
:103F7600831203135C088316031797008312031337
:103F86005B08831603179600831203135A088316D9
:103F96000317950083120313590883160317940019
:103FA600170883160313DA008316031716088316F9
:103FB6000313D90083160317150883160313D800B5
:103FC60083160317140883160313D700A430E000E2
:103FD6006008DB000230DC000030DD000A128A15C2
:103FE600CF210A168A15A430F3000130F4000A1610
:0A3FF6008A1594220A168A150800A5
:04400E00D4E0FFFFFC
:00000001FF
