:020000040000FA
:060000000A128A110C280F
:10000800FE00030EF1000A08F2000A128A11A7285E
:100018000A128A110F28F801F901FA018312031351
:10002800A40183010A128A110C29F5007503031D26
:100038001E281F286028033083120313860001300E
:10004800F3000030F4000A128A1148210A128A11BA
:1000580006308312031386000130F3000030F400E9
:100068000A128A1148210A128A110C3083120313CA
:1000780086000130F3000030F4000A128A1148218A
:100088000A128A1109308312031386000130F30023
:100098000030F4000A128A1148210A128A1103302A
:1000A8008312031386000130F3000030F4000A12B3
:1000B8008A1148210A128A117508031D64286528C7
:1000C800A62809308312031386000130F30000309C
:1000D800F4000A128A1148210A128A110C3083127C
:1000E800031386000130F3000030F4000A128A116D
:1000F80048210A128A110630831203138600013040
:10010800F3000030F4000A128A1148210A128A11F9
:1001180003308312031386000130F3000030F4002B
:100128000A128A1148210A128A110930831203130C
:1001380086000130F3000030F4000A128A114821C9
:100148000A128A110800831203138C1DAC28AD28EB
:1001580005291412A401A40A141BB328B428B8282A
:10016800941FB728B828BF281308F0007008FA00B1
:1001780014139413141683160313941AC428C52849
:10018800E1281419C828C928E12883120313130881
:10019800F0007008FA008C11141683160313141C4F
:1001A800D628D728D1288312031313088800A6302D
:1001B800F000F00BDD2800000229941AE428E52855
:1001C8000229141DE828E9280229831203131308B9
:1001D800F0007008FA008316031314108312031337
:1001E8001E0893001416A630F000F00BF928000042
:1001F80083160313141801290229FC2883120313F8
:100208008C1172088A00710E8300FE0E7E0E0900A2
:100218000A128A1189210A128A110A128A119D2149
:100228000A128A11831203132403031D1C291D2992
:100238004129F601F70100300A128A1119200A1221
:100248008A110130F6070318F70A0030F707770814
:10025800803AFF0080307F02031D3429FA3076028D
:10026800031C372938291F29E830F3000330F4002C
:100278000A128A1148210A128A1183120313A4014F
:1002880016290A128A110C2883120313A001A1014E
:100298006429A201A3010130A2070318A30A0030B0
:1002A800A30706302302723003192202031C5D29BA
:1002B8005E294F290130A0070318A10A0030A107C1
:1002C80074082102031D6A2973082002031C6D2982
:1002D8006E294D290800F300730883160313930051
:1002E800363083120313940080308316031394006E
:1002F80001309100071687158B170B17831203130C
:100308008C11831603138C150800831603178801B4
:10031800890183160313860188018312031386015A
:100328008801861430300A128A116F210A128A1144
:1003380008008316031386010F3083120313860007
:020348000800AB
:04400E00D4E0FFFFFC
:00000001FF
