:020000040000FA
:060000000A128A110C280F
:10000800FE00030EF8000A08F9000A128A114928AE
:100018000A128A110F28F001F101F201F301F4012B
:10002800F501F60183010A128A118B28831603173A
:100038008801013089000130831603138600880186
:10004800831203138601880189018316031389012A
:100058008B170B17831203138C11831603138C153C
:1000680085160514851405158316031708148814B6
:10007800081583120313A001A101A20125300A1259
:100088008A116D200A128A110800831203138C1D2D
:100098004E284F2866280A128A1194200A128A11BB
:1000A80083120313880002300806031D5C285D28AC
:1000B800662804300A128A11A4200A128A118312AF
:1000C80003138C1179088A00780E8300FE0E7E0EC9
:1000D8000900FA008316031387127A1D74287528FD
:1000E8007D288312031322088316031394008715AF
:1000F800852883120313200822048316031394000F
:1001080087117A08831203132104940008000A1245
:100118008A111A200A128A1190280A128A110C28A8
:100128000A128A119D200A128A11831203131308D6
:10013800080083160313141CA228A3289D2808006E
:0C014800F70077088312031393000800EF
:04400E00D4E0FFFFFC
:00000001FF
