:020000040000FA
:060000000A128A11F82F1C
:100E2000F000700883120313930008008316031365
:100E3000141C1B2F1C2F162F08000A128A111627AC
:100E40000A128A118312031313080800F300831691
:100E500003138712731D2D2F2E2F322F720894002B
:100E60008715362F70087204940087117308710477
:100E700083120313940008008316031788010130BE
:100E8000890001308316031386008801831203133F
:100E90008601880189018316031389018B170B17BB
:100EA000831203138C11831603138C1585160514F6
:100EB0008514051583160317081488140815F00106
:100EC000F101F20125300A128A1126270A128A112D
:100ED00008000A128A113C270A128A11831203138E
:100EE0009F171F13831603139F139F121F12831242
:100EF00003131F14F701FF30F4007408F8000230E8
:100F0000F600AD30F5008F30F400F40B852FF50BB3
:100F1000852FF60B852F0A128A111D270A128A11B6
:100F2000831203138800C730F400962FF40B952F1B
:100F3000992F9A2F831203130808031DA02FA12FA6
:100F4000CC2F1F08C33904389F001A30F500F83041
:100F5000F400F40BA92FF50BA92F00008312031343
:100F60009F14C52F1E08F4007408F9008230F500A4
:100F7000DD30F400F40BBA2FF50BBA2FBF2F790830
:100F80000A128A1110270A128A11831203139F185A
:100F9000CA2FCB2FB22F8B2FC3309F051A30F500ED
:100FA000F830F400F40BD22FF50BD22F000083128F
:100FB00003139F14EE2F1E08F4007408FA00823009
:100FC000F500DD30F400F40BE32FF50BE32FE82FF1
:100FD0007A080A128A1110270A128A11831203133F
:100FE0009F18F32FF42FDB2F8B2F0A128A11002862
:100FF000F701F801F901FA0183010A128A11692F38
:04400E00D4E0FFFFFC
:00000001FF
