:020000040000FA
:060000000A128A110C280F
:10000800FE00030EF2000A08F3000A128A116E2994
:100018000A128A110F2883133830FD000330FE00BE
:10002800A730FF00203084000A128A11C3230A1265
:100038008A11CD01CE01CF01D001D101D201D30166
:10004800D401D501D601D701D801D901F601F701AC
:10005800F801F90183010A128A1132280A128A1159
:10006800D2230A128A117030831603138F00831665
:100078000317890183120313CF01D001D101D201E3
:1000880077300A128A11DA210A128A11031C4D28C4
:100098004E284428F81F512852285E282D308312F4
:1000A8000313CA004A08AC00F709F809F70A03194C
:1000B800F80A7D28780883120313CB007708CA0052
:1000C80004300310CB0CCA0CFF3E031D652800301A
:1000D8004B02643003194A02031C732874287928D8
:1000E8003130CA004A08AC007D282030CA004A08CE
:1000F800AC000A30C4000030C5000A30BC00003033
:10010800BD00770E0F39BE00780EF039BE04780EA8
:100118000F39BF000A128A1139220A128A11831272
:1001280003133D08C7003C08C6000A128A117F2243
:100138000A128A11831203134408303ECA004A087F
:10014800AD007808CB007708CA0004300310CB0C48
:10015800CA0CFF3E031DAA284A08CC004C08AE0072
:10016800E830BC000330BD000F307705B800003020
:100178007805B9007130BA000230BB000A128A1142
:10018800BB220A128A11831203133908BF003808E8
:10019800BE000A128A1139220A128A118312031325
:1001A8003C08303ECA004A08B0000A30C40000309B
:1001B800C5006430BC000030BD000F307705B800C2
:1001C80000307805B9007130BA000230BB000A125D
:1001D8008A11BB220A128A11831203133908BF003D
:1001E8003808BE000A128A1139220A128A118312AB
:1001F80003133D08C7003C08C6000A128A117F2273
:100208000A128A11831203134408303ECA004A08AE
:10021800B1000A30C4000030C5000A30BC0000300C
:10022800BD000F307705B80000307805B90071308F
:10023800BA000230BB000A128A11BB220A128A11C4
:10024800831203133908BF003808BE000A128A1146
:1002580039220A128A11831203133D08C7003C0889
:10026800C6000A128A117F220A128A118312031306
:100278004408303ECA004A08B2000A30C4000030C0
:10028800C5000F307705B80000307805B900713027
:10029800BA000230BB000A128A11BB220A128A1164
:1002A800831203133908C7003808C6000A128A11D6
:1002B8007F220A128A11831203134408303ECA00AF
:1002C8004A08B3002E08CA004A08A10044280A12A6
:1002D8008A110C28831203138C1D73297429D329BE
:1002E8001412141B782979297D29941F7C297D29CA
:1002F80087291308F000F1017008CF007108D000B9
:1003080014139413141683160313941A8C298D2925
:10031800AC29141990299129AC29831203131308C5
:10032800F000F1017008CF007108D0008C1114168C
:1003380083160313141CA129A2299C2983120313D1
:1003480013088800A630F000F00BA8290000D02977
:10035800941AAF29B029D029141DB329B429D0295A
:10036800831203131308F000F1017008CF0071081D
:10037800D00083160313141083120313210893006B
:100388001416A630F000F00BC729000083160313DB
:100398001418CF29D029CA29831203138C11730882
:1003A8008A00720E8300FE0E7E0E0900831203136C
:1003B800BE000A128A11E2220A128A110318E529DC
:1003C800E629E8290310382ACC300A128A1150236A
:1003D8000A128A1144300A128A1150230A128A1109
:1003E8000A128A1108230A128A11003A0319FD29F0
:1003F800FE29F4290A128A11E2220A128A11031824
:10040800062A072A082AE629CC300A128A1150231C
:100418000A128A11BE300A128A1150230A128A114E
:100428000A128A1108230A128A1183120313BC00C4
:10043800BD013E0884003C088000840A3D08800015
:100448000A128A1108230A128A1183120313BC00A4
:10045800BD013C08BD00BC013E0884003C08800486
:10046800840A3D0880040314080083120313C101A1
:10047800C2013C083D040319422A432A7A2AC301CF
:10048800C30A512A01300310BC0DBD0DFF3E031DE8
:10049800472A0130C0004008C307BD1F542A552A07
:1004A800462A01300310C10DC20DFF3E031D562A16
:1004B8003D083F02031D622A3C083E02031C652AD0
:1004C800662A6D2A3C08BE023D08031CBF03BF0212
:1004D800411401300310BD0CBC0CFF3E031D6E2AF5
:1004E8000130C302031D792A7A2A552A4208BD0021
:1004F8004108BC000800831203134408450403198B
:10050800862A872AB62AC901C90A952A0130031002
:10051800C40DC50DFF3E031D8B2A0130C8004808D5
:10052800C907C51F982A992A8A2A45084702031D20
:100538009F2A44084602031CA22AA32AA92A44087F
:10054800C6024508031CC703C70201300310C50CC7
:10055800C40CFF3E031DAA2A0130C902031DB52A97
:10056800B62A992A4708C5004608C4000800F401BD
:10057800F50183120313381CC22AC32AC92A3A0870
:10058800F4070318F50A3B08F50701300310BA0D04
:10059800BB0DFF3E031DCA2A01300310B90CB80C6D
:1005A800FF3E031DD12A38083904031DDC2ADD2A41
:1005B800BD2A7508B9007408B8000800831203132F
:1005C8008610831603138610C730F400EB2AF40B49
:1005D800EA2AEE2AEF2A8316031386144230F4001F
:1005E800F40BF42A0000831203138618FC2AFD2A50
:1005F800062B9F30F400002BF40BFF2A032B042B4F
:100608000314072B0310080083120313BA01BB015C
:100618000A128A112E230A128A1100300318013097
:1006280083120313B8003B0A1B2B0310B80DFF3EBF
:10063800031D192B3808B9003908BA040130B8006D
:100648003808BB0708303B02031C2B2B2C2B0C2B28
:100658003A080800831203138610831603138610C2
:10066800352B362B8316031386140330F400F40B52
:100678003B2B791083120313861C432B79144230C9
:10068800F400F40B452B000079184B2B4C2B4E2B08
:1006980003104F2B0314080083120313B900BA0187
:1006A8003908B8003A0A5A2B0310B80CFF3E031D4C
:1006B800582B38080A128A1170230A128A1101303D
:1006C80083120313B8003808BA0708303A02031C2B
:1006D8006E2B6F2B542B0800F50083120313861022
:1006E800831603138610782B792B75187C2B802B97
:1006F800831203138614832B831203138610353059
:10070800F400F40B852B8316031386148B2B8C2B88
:100718000800F4007408831603139300363083121C
:100728000313940080308316031394000130910062
:10073800071687158B170B17831203138C11831653
:1007480003138C1508003034303430342E343034F0
:1007580030343034303420344334203400343034AE
:10076800303430342E343034303430343034203473
:100778004334203400347E088A007F0882000A123D
:100788008A11BF230A128A118000840A04087D0690
:1007980003190034FF0A0319FE0AC32B013083161C
:1007A8000313860083120313880170300A128A111A
:0807B8008D230A128A110800CA
:04400E00D4ECFFFFF0
:00000001FF
