:020000040000FA
:060000000A128A110C280F
:10000800FE00030EF1000A08F2000A128A111628EF
:100018000A128A110F28F601F701F80183010A1262
:100028008A117928831203138C1D1B281C28722817
:100038001412141B202821282528941F2428252839
:100048002C281308F0007008F800141394131416E1
:1000580083160313941A312832284E281419352888
:1000680036284E28831203131308F0007008F8008E
:100078008C11141683160313141C432844283E2895
:100088008312031313088800A630F000F00B4A28E7
:1000980000006F28941A512852286F28141D5528DB
:1000A80056286F28831203131308F0007008F8000D
:1000B800831603131410831203131E0893001416D7
:1000C800A630F000F00B66280000831603131418FE
:1000D8006E286F286928831203138C1172088A000E
:1000E800710E8300FE0E7E0E09000A128A11BE20D0
:1000F8000A128A11831203139F171F1383160313FF
:100108009F139F121F12831203131F14C3309F05DE
:100118003430F500F130F400F40B9028F50B9028FA
:100128009528831203139F149D281E08F400740851
:10013800F6009F18A028A12899280A128A110C28CD
:10014800F3007308831603139300363083120313E6
:100158009400803083160313940001309100071631
:1001680087158B170B17831203138C118316031330
:100178008C15080083160317880189018316031359
:1001880086018801831203138601880170300A12E0
:0A0198008A11A4200A128A1108003F
:04400E00D4E0FFFFFC
:00000001FF
