:020000040000FA
:060000000A128A11F92F1B
:100F4400831603178901831603138601880183120C
:100F540003138601880170300A128A11B4270A1219
:100F64008A110800F30073088316031393003630C4
:100F7400831203139400803083160313940001300A
:100F84009100071687158B170B17831203138C1107
:100F9400831603138C1508000A128A11A2270A1259
:100FA4008A11831203139F171F13831603139F13AE
:100FB4009F121F12831203131F14C3309F05343072
:100FC400F500F130F400F40BE52FF50BE52FEA2FD3
:100FD400831203139F14F22F1E08F4007408F00008
:100FE4009F18F52FF62FEE2F0A128A110028F00110
:0C0FF400F101F20183010A128A11CE2FD4
:04400E00D4E0FFFFFC
:00000001FF
